:100000000C9438000C9460000C9460000C94600018
:100010000C9460000C9460000C9460000C946000E0
:100020000C9460000C9460000C9460000C946000D0
:100030000C9460000C9460000C9460000C946000C0
:100040000C947A000C9460000C9475090C94A70928
:100050000C9460000C9460000C9460000C946000A0
:100060000C9460000C94600075006506CD09790061
:1000700011241FBECFEFD8E0DEBFCDBF11E0A0E05E
:10008000B1E0E4E8F9E102C005900D92AA3AB107A7
:10009000D9F723E0AAEAB1E001C01D92AA36B2075F
:1000A000E1F710E0C7E3D0E004C02197FE010E9411
:1000B000F70AC433D107C9F70E9462000C94B50C4B
:1000C0000C9400000E94310184E092E00E94B3038E
:1000D0006AE071E080EB91E00E946B0668EE73E0ED
:1000E00080E090E00E94F600F3CF8AEA91E00C9461
:1000F0007C0708951F920F920FB60F9211242F9331
:100100003F938F939F93AF93BF938091FC01909106
:10011000FD01A091FE01B091FF013091FB0123E0B0
:10012000230F2D3768F126E8230F0296A11DB11D7C
:100130002093FB018093FC019093FD01A093FE01AD
:10014000B093FF018091000290910102A091020200
:10015000B09103020196A11DB11D809300029093FE
:100160000102A0930202B0930302BF91AF919F914D
:100170008F913F912F910F900FBE0F901F90189568
:100180000196A11DB11DD4CF2FB7F8946091FC0149
:100190007091FD018091FE019091FF012FBF0895A4
:1001A0003FB7F8948091000290910102A091020261
:1001B000B091030226B5A89B05C02F3F19F0019608
:1001C000A11DB11D3FBFBA2FA92F982F8827820FDD
:1001D000911DA11DB11DBC01CD01660F771F881FA8
:1001E000991F660F771F881F991F08958F929F92FE
:1001F000AF92BF92CF92DF92EF92FF924B015C01E0
:100200000E94D0006B017C0181149104A104B1040F
:10021000F9F00E946C010E94D000DC01CB018C1926
:100220009D09AE09BF09883E9340A105B10588F339
:1002300021E0821A9108A108B10888EEC80E83E077
:10024000D81EE11CF11C81149104A104B10419F71A
:10025000FF90EF90DF90CF90BF90AF909F908F90E6
:100260000895789484B5826084BD84B5816084BD2E
:1002700085B5826085BD85B5816085BDEEE6F0E01F
:10028000808181608083E1E8F0E01082808182607B
:100290008083808181608083E0E8F0E080818160FC
:1002A0008083E1EBF0E0808184608083E0EBF0E02C
:1002B000808181608083EAE7F0E0808184608083D0
:1002C000808182608083808181608083808180687A
:1002D00080831092C10008950895FC01158616864A
:1002E0001786108A118A128A138A108E1486148235
:1002F000158210927D02138616821782108611864F
:100300001286089589E892E090932702809326024E
:1003100026E00C940C09E0918302EA3259F021E0C6
:100320002E0F20938302F0E0EE0FFF1FE85DFD4FDC
:10033000918380830895CF93DF93EC01809126020F
:1003400090912702DC01ED91FC910190F081E02D6C
:1003500009958A85811108C062E070E080E090E034
:10036000DF91CF910C94F600DF91CF910895FC01BD
:1003700085850895FC0187850895DC015696ED91E9
:10038000FC915797E60FF11D8081089570E0DC0124
:100390005696ED91FC915797E60FF71F2081222387
:1003A00059F0660F771F5496ED91FC915597E60F23
:1003B000F71F80819181089580E090E008950F9368
:1003C0001F93CF93DF93EC011B868C81882341F12F
:1003D00000E010E02C8530E08C899D89021713071E
:1003E000ACF49801220F331FFC01E20FF31F808150
:1003F0009181009711F00E94A10B6DE071E089E8F6
:1004000092E00E942D0A0F5F1F4FE4CF1C860E94CE
:10041000A10B61E171E089E892E00E942D0A1C8243
:100420008D81882359F08E899F890E94A10B65E1F7
:1004300071E089E892E00E94420A1D82DF91CF912B
:100440001F910F91089580917E02882321F0909151
:100450007D0281E08927089520E130E040E050E00E
:1004600060E070E0CB010E946E0A862F809520E14B
:10047000829FC00111246F70862B08954F925F9266
:100480006F927F928F929F92AF92BF92DF92EF9284
:10049000FF920F931F93CF93DF93CDB7DEB76F9784
:1004A0000FB6F894DEBF0FBECDBF09A91AA9DBA80D
:1004B000FEA80E94C40080907F0290908002A090CD
:1004C0008102B0908202DD2009F480C020917C027C
:1004D000222309F47BC081149104A104B10409F41E
:1004E00075C0DC01CB0188199909AA09BB090196DD
:1004F000A11DB11D883C9105A105B10508F066C09C
:1005000080917E0298EC890E911CA11CB11C88235D
:1005100009F454C0CE0101960E946D01CE010196EE
:100520000E94B8060E94C400681579058A059B05DB
:10053000F0F48091260290912702DC01ED91FC916C
:100540000480F581E02D0995892B61F380912602C5
:1005500090912702DC01ED91FC910680F781E02D5E
:100560000995BC01CE0101960E94DF04DBCF8C858A
:100570008111DFCF0E94C00629C0F801838588233E
:1005800029F18091260290912702DC01ED91FC91E6
:100590000480F581E02D0995892B81F08091260258
:1005A00090912702DC01ED91FC910680F781E02D0E
:1005B0000995BC0184E092E00E94DF040E94C4001F
:1005C000681579058A059B05E0F2D7CF81E0809315
:1005D0007C022E01F7E34F0E511C6FEFC8010E9401
:1005E0009B016DE0C8010E949B016D2DC8010E9416
:1005F0009B01C8010E942C02682FC8010E949B0128
:100600006DA9C8010E949B016F2DC8010E949B012A
:100610006F2D6095C8010E949B01A12CB12C8F2CDD
:10062000912CA814B904DCF5320182E0680E711C2B
:10063000D201ED90FC90F7016081C8010E949B01FE
:10064000D7016C916095C8010E949B01412C512CEF
:10065000F701808190E0481659067CF4D701119685
:10066000ED91FC911297E40DF51D6081C8010E9487
:100670009B01BFEF4B1A5B0AEBCFE114F10451F081
:100680008381882321F0818192810E94A10BC7017F
:100690000E94FC09FFEFAF1ABF0A2301C2CF60E03E
:1006A000C8010E949B01DD2079F00E94C400DC019A
:1006B000CB010196A11DB11D80937F029093800212
:1006C000A0938102B09382026F960FB6F894DEBFBA
:1006D0000FBECDBFDF91CF911F910F91FF90EF9093
:1006E000DF90BF90AF909F908F907F906F905F90C2
:1006F0004F900895CF93DF931F9222E02F931F9284
:100700001F929F938F930E943E0281E08093850207
:100710000F900F900F900F900F900F9080912302E9
:1007200090912402892BE1F0C0E0D0E020912502D5
:1007300030E08091230290912402C217D30764F421
:100740009E01220F331FFC01E20FF31F8081918174
:100750000E94F9072196EACF0E94A10B1092250270
:10076000DF91CF910895CF93DF93209185022111DE
:100770000EC0EC0140E052EC61E070E00E948201AA
:1007800010928402CE01DF91CF910C947A03DF9115
:10079000CF910895AF92BF92CF92DF92EF92FF92E6
:1007A0000F931F93CF93DF931F92CDB7DEB78C01CA
:1007B000DC011F968C911F97823079F416961C925B
:1007C000169717968C911797882309F485C0599628
:1007D000ED91FC915A9780E00CC0813061F4F801F2
:1007E00086838781882309F477C0018CF28DE02D00
:1007F00081E0099571C0833081F41F9281E08F936D
:100800001F921F921F930F930E943E020F900F9012
:100810000F900F900F900F905FC0853009F05CC073
:1008200060E0C8010E94C6014BE050E0BC0189E1D4
:1008300091E00E94950C892B09F04EC01982D801D5
:100840005696ED91FC915797A180B12CE12CF12C9B
:10085000C12CD12CEA14FB0474F461E0C8010E949D
:10086000C6018E0D9F1DFC018081C80ED11CFFEFBB
:10087000EF1AFF0AEFCFC98284E090E00E94FA09E4
:100880007C01DC0113961C92139781E08C93CE01BE
:10089000019612969C938E93119784E090E00E94AB
:1008A000FA09FC01138287E1808385E291E092835B
:1008B0008183FF92EF92FF93EF9382E08F9385E025
:1008C0008F931F921F921F930F930E943E020FB6A9
:1008D000F894DEBF0FBECDBF0F90DF91CF911F9177
:1008E0000F91FF90EF90DF90CF90BF90AF90089561
:1008F0000F931F93CF93DF9320911102222329F0AE
:1009000008E212E0C0E0D0E006C0DF91CF911F9175
:100910000F910C94CA038091830290E0C817D90705
:100920006CF4D8018D919D918D01DC01ED91FC91CC
:100930000190F081E02D09952196EDCFDF91CF91C7
:100940001F910F910895CF93DF93EC010E94230232
:10095000811114C081E080937E028A871F9283E018
:100960008F931F921F92DF93CF930E943E021A86AD
:100970000F900F900F900F900F900F90DF91CF91ED
:100980000895CF93DF93EC010E9423028823A1F006
:1009900010927E0281E08A871F9284E08F931F92DB
:1009A0001F92DF93CF930E943E021A860F900F9002
:1009B0000F900F900F900F90DF91CF910895CF92ED
:1009C000DF92EF92FF920F931F93CF93DF93EC018F
:1009D0008B016F3F8FEF780709F46EC19B859111F2
:1009E0001BC06F3F7105C1F4CE010E94DF0181E0A1
:1009F0008B871D8A1C8A1F8A1E8A888B6DE371E093
:100A000089E892E0DF91CF911F910F91FF90EF90D5
:100A1000DF90CF900C942D0A8889843069F4992353
:100A200009F44AC161E471E089E892E00E942D0A6C
:100A30001A8A198A0B8B3DC1853099F5992309F4DF
:100A40003BC165E471E089E892E00E942D0A4B8980
:100A5000842F90E02FEF30E0281B390B201731074F
:100A6000F1F5411102C089E026C1880F991F0E944B
:100A70000C0B9D8B8C8B69E471E089E892E00E94FD
:100A80002D0A11E01C838B8990E00E940C0B9F8B38
:100A90008E8B6DE471E089E892E00E942D0A1D833F
:100AA00008C18630F1F0873009F055C0992309F468
:100AB00003C165E571E089E892E00E942D0A298969
:100AC00030E0EE89FF89E20FF31F6081862F90E00E
:100AD0004FEF50E0481B590B4017510791F01B8610
:100AE00094C0992309F4E8C061E571E089E892E0D7
:100AF0000E942D0A8989EE89FF89E80FF11D008384
:100B0000D8C0220F331F0C891D89662381F0020F84
:100B1000131F0E940C0BF8019183808369E571E03B
:100B200089E892E00E942D0A88898F5F0FC0F80142
:100B3000E20FF31F118210821A8A89898F5F898BD5
:100B40009B89891302C089E001C086E0888B8C856F
:100B50008F5F8C87B1C0883081F5992309F4ACC0D0
:100B60006DE571E089E892E00E942D0A89892C895F
:100B70009D89E22FF92FE80FF11DE80FF11D80810B
:100B80009181009741F02A8931E0320F3A8BFC01C4
:100B9000E20FF11D00838989EE89FF89E80FF11DBD
:100BA0002A899081291388C01A8A8F5F898B9B8933
:100BB000891709F47EC086E07EC0893089F59923C3
:100BC00009F47AC061E671E089E892E00E942D0A9A
:100BD000088F01111AC01B86CE010E9478048885F7
:100BE000882399F08D85882381F0CE010E94A3048B
:100BF0000C891D892E893F89EB8DFC8D4B896F8572
:100C00008D850995CE010E94C104CE01DF91CF915F
:100C10001F910F91FF90EF90DF90CF900C94DF0128
:100C2000992309F449C0813031F50D87002309F477
:100C300040C0888581113DC038E2C32E32E0D32EFA
:100C400000E010E0F12C8091830290E00817190772
:100C500074F4ED84F601819191916F010E94B506C3
:100C6000E81202C0FF24F3940F5F1F4FECCFFF2068
:100C700009F435CF1EC0823099F40E878FEF90E0D3
:100C8000801B910924E0959587952A95E1F70F70CF
:100C900010E08017910709F01B8665E671E005C03A
:100CA000833039F40F8769E671E089E892E00E94A9
:100CB0002D0A88898F5F888BDF91CF911F910F91CB
:100CC000FF90EF90DF90CF90089584E092E00C9435
:100CD0006D010C940D08CF92DF92EF92FF920F936B
:100CE0001F93CF93DF93CDB7DEB76C01EDB6FEB6A1
:100CF000FB0101900020E9F79F01261B370B2E5FB7
:100D00003F4F8DB79EB7821B930B0FB6F8949EBFD3
:100D10000FBE8DBF0DB71EB70F5F1F4FEDB7FEB7EC
:100D20001182C8010E94A20C60E771E0C8010E9414
:100D3000A20CB801C6010E9412080FB6F894FEBEBC
:100D40000FBEEDBEDF91CF911F910F91FF90EF90FD
:100D5000DF90CF90089508952FE731E0FC013183B3
:100D60002083638312820C948B01FC01838108959C
:100D7000909388028093870281E080938602089591
:100D80001092880210928702109286020895809134
:100D90008602882329F08091870290918802089525
:100DA00084E092E008951F93CF93DF93EC011B81C1
:100DB0000E94C7060E94B701181328C0CE010E94E6
:100DC000C7060E94BA018F3FB9F48A818823F1F0E7
:100DD00084E092E00E942302811118C084E092E036
:100DE0000E94A304EC81FD81099584E092E0DF91EB
:100DF000CF911F910C94C104E881F9810280F381A5
:100E0000E02DCE01DF91CF911F910994DF91CF9119
:100E10001F9108956F927F928F929F92AF92BF928F
:100E2000CF92DF92EF92FF920F931F93CF93DF93B6
:100E3000EC010E94C7060E94BA01182FCE010E9441
:100E4000C70660E00E94BD01113009F046C000E015
:100E500010E0C82ED12C5E01FFE4AF0EB11C7E0164
:100E600089E4E80EF11C4E01ADE48A0E911C3E01AE
:100E7000B9E06B0E711C0C151D057CF5CE010E94AE
:100E8000C70660E00E94C601800F911FDC018C91B3
:100E9000F5012081318120343105E1F0D701ED9158
:100EA000FC9111979F012F5F3F4F11963C932E931A
:100EB0008083F501808191810196918380832D91BA
:100EC0003C91D4018D919C912817390719F4F701B1
:100ED000718260820F5F1F4FCECFDF91CF911F9144
:100EE0000F91FF90EF90DF90CF90BF90AF909F90C9
:100EF0008F907F906F900895CF93DF93EC0122E065
:100F000041E066E206960E94690666E2CE010E9412
:100F1000AC0687E891E099838883CE010996FE01AB
:100F2000E75BFF4F91838083DE01A55BBF4F119686
:100F30009C938E931296ED93FC93C15BDF4F1982C5
:100F40001882DF91CF910895CF92DF92EF92FF92B6
:100F50000F931F93CF93DF93FB0101900020E9F7DC
:100F60003197EF01C61BD70BD9F17B016C0184E0EF
:100F700090E00E94FA098C01FC0113829E01CF3F90
:100F8000D10519F014F02FEF30E0F8012083F28240
:100F9000E18284E090E00E94FA09FC01138282E081
:100FA000808396012D5F3F4F328321831F930F93E0
:100FB000FF93EF938F93C1E0CF931F9289E28F93BA
:100FC00084E092E09F938F930E943E02F601C083DB
:100FD0008DB79EB70A960FB6F8949EBF0FBE8DBF11
:100FE000DF91CF911F910F91FF90EF90DF90CF9005
:100FF0000895CF93DF93FC01208121110BC0EC01F8
:10100000618172810E94A40789819A81DF91CF91C9
:101010000C94A10BDF91CF910895FC016283208392
:1010200041830895EF92FF920F931F93CF93DF9325
:10103000FB0101900020E9F73197EF01C61BD70BA8
:1010400051F18B017C0184E090E00E94FA09FC01DF
:1010500013829E01CF3FD10519F014F02FEF30E03D
:10106000208312830183FF93EF9381E08F93F70135
:1010700080818F931F9282818F9384E092E09F936F
:101080008F930E943E028DB79EB708960FB6F894D4
:101090009EBF0FBE8DBFDF91CF911F910F91FF902B
:1010A000EF900895FC01918D228D892F90E0805C56
:1010B0009F4F821B91098F7399270895FC01918D91
:1010C000828D981731F0828DE80FF11D858D90E0AB
:1010D00008958FEF9FEF0895FC01918D828D9817F1
:1010E00061F0828DDF01A80FB11D5D968C91928D0C
:1010F0009F5F9F73928F90E008958FEF9FEF089509
:10110000FC01848DDF01A80FB11DA35ABF4F2C91A4
:10111000848D90E001968F779927848FA689B7896F
:101120002C93A089B1898C9180648C93938D848D4C
:10113000981308950288F389E02D80818F7D808344
:101140000895CF93DF93EC01888D8823B9F0EA8965
:10115000FB89A889B989908195FF0DC00FB607FC5E
:10116000FACF908195FFF7CF8C9185FFF4CFCE0118
:101170000E948008ECCF8C9186FFF0CFDF91CF9159
:101180000895EF92FF920F931F93CF93DF93EC019B
:1011900081E0888F9B8D8C8D981781F1062FEB8CC9
:1011A000F12C8FEFE81AF80AE894E7F8FF241E2DD7
:1011B00003C00FB607FE19C09C8D1917D1F38B8D94
:1011C000FE01E80FF11DE35AFF4F0083EB8EEA8921
:1011D000FB8980818062808381E090E0DF91CF9104
:1011E0001F910F91FF90EF900895E889F989808110
:1011F00085FFE2CFCE010E948008DECFE889F98921
:10120000808185FFCBCFEE89FF896083E889F989EA
:10121000808180648083E0CFBF92CF92DF92EF9293
:10122000FF920F931F93CF93DF93EC016A017B0131
:10123000B22EE889F98982E080834115514E61051B
:101240007105B1F060E079E08DE390E0A7019601CF
:101250000E94AB0A89019A01015011092109310943
:101260003695279517950795011580E11807A8F081
:10127000E889F989108260E874E88EE190E0A701BE
:1012800096010E94AB0ADA01C9010197A109B109CF
:10129000B695A795979587958C01EC85FD8510836C
:1012A000EE85FF850083188EEC89FD89B082EA897E
:1012B000FB89808180618083EA89FB8980818860E5
:1012C0008083EA89FB89808180688083EA89FB8941
:1012D00080818F7D8083DF91CF911F910F91FF904F
:1012E000EF90DF90CF90BF9008951F920F920FB6AE
:1012F0000F9211242F938F939F93EF93FF93E0917D
:101300009902F0919A028081E0919F02F091A002EF
:1013100082FD1BC020818091A2028F5F8F7390910C
:10132000A302891741F0E091A202F0E0E757FD4FD8
:10133000258F8093A202FF91EF919F918F912F9122
:101340000F900FBE0F901F9018958081F4CF1F92C1
:101350000F920FB60F9211242F933F934F935F93E9
:101360006F937F938F939F93AF93BF93EF93FF936D
:1013700089E892E00E948008FF91EF91BF91AF91C0
:101380009F918F917F916F915F914F913F912F919D
:101390000F900FBE0F901F901895E9E8F2E01382AE
:1013A000128288EE93E0A0E0B0E084839583A68368
:1013B000B7838FE891E09183808385EC90E09587F7
:1013C000848784EC90E09787868780EC90E0918B0F
:1013D000808B81EC90E0938B828B82EC90E0958BFC
:1013E000848B86EC90E0978B868B118E128E138EF9
:1013F000148E08950C940C0B0C94A10BCF92DF92D9
:10140000EF92FF920F931F93CF93DF9341155105F6
:1014100009F16A018C017B01C0E0D0E004C0219693
:10142000CC16DD0669F0D7016D917D01D801ED91F3
:10143000FC910190F081E02DC8010995892B79F785
:10144000CE01DF91CF911F910F91FF90EF90DF9030
:10145000CF900895C0E0D0E0F3CF6115710579F029
:10146000FB0101900020E9F73197AF01461B570BB4
:10147000DC01ED91FC910280F381E02D099480E084
:1014800090E008950F931F93CF93DF93EC016115C4
:10149000710509F1FB0101900020E9F73197AF01D7
:1014A000461B570BE881F9810280F381E02D0995F5
:1014B0008C01E881F9810280F381E02D42E050E067
:1014C00060E771E0CE010995800F911FDF91CF9108
:1014D0001F910F91089500E010E0EBCFCF92DF92C3
:1014E000EF92FF920F931F93CF93DF9300D000D022
:1014F000CDB7DEB7621773078407950794F48901A7
:101500009A016B017C01A9019801261B370B480B3E
:10151000590BA1F460E070E0CB016C0D7D1D8E1DB8
:101520009F1D0F900F900F900F90DF91CF911F9103
:101530000F91FF90EF90DF90CF90089529833A8329
:101540004B835C830E94870C29813A814B815C81AB
:101550000E94CD0AE2CFA1E21A2EAA1BBB1BFD01FD
:101560000DC0AA1FBB1FEE1FFF1FA217B307E40782
:10157000F50720F0A21BB30BE40BF50B661F771FDA
:10158000881F991F1A9469F76095709580959095BA
:101590009B01AC01BD01CF010895052E97FB1EF400
:1015A00000940E94E40A57FD07D00E94AB0A07FC92
:1015B00003D04EF40C94E40A509540953095219553
:1015C0003F4F4F4F5F4F089590958095709561956F
:1015D0007F4F8F4F9F4F08950E94FD0AA59F900D4A
:1015E000B49F900DA49F800D911D11240895EE0FBE
:1015F000FF1F0590F491E02D0994A29FB001B39FC5
:10160000C001A39F700D811D1124911DB29F700D0B
:10161000811D1124911D0895CF93DF938230910590
:1016200010F482E090E0E0916803F091690320E01B
:1016300030E0C0E0D0E0309711F14081518148178F
:101640005907C0F04817590761F4828193812097A8
:1016500019F09B838A832BC090936903809368035E
:1016600026C02115310519F04217530718F49A01C5
:10167000BE01DF01EF010280F381E02DDCCF2115F7
:10168000310509F1281B390B2430310590F41296ED
:101690008D919C9113976115710521F0FB01938346
:1016A000828304C09093690380936803FD0132969E
:1016B00044C0FD01E20FF31F819391932250310941
:1016C0002D933C933AC02091660330916703232BFE
:1016D00041F420910201309103013093670320937C
:1016E000660320910001309101012115310541F47B
:1016F0002DB73EB74091040150910501241B350BD5
:10170000E0916603F0916703E217F307A0F42E1B44
:101710003F0B2817390778F0AC014E5F5F4F241755
:10172000350748F04E0F5F1F5093670340936603E1
:101730008193919302C0E0E0F0E0CF01DF91CF917F
:1017400008950F931F93CF93DF93009709F48CC0F4
:10175000FC01329713821282009168031091690391
:101760000115110581F420813181820F931F209191
:101770006603309167032817390779F5F0936703FB
:10178000E093660371C0D80140E050E0AE17BF0798
:1017900050F412962D913C911397AD01211531050E
:1017A00009F1D901F3CF9D01DA01338322836081EE
:1017B0007181860F971F8217930769F4EC012881C6
:1017C0003981260F371F2E5F3F4F318320838A8157
:1017D0009B8193838283452B29F4F0936903E093E3
:1017E000680342C01396FC93EE931297ED01499162
:1017F00059919E01240F351FE217F30771F4808180
:101800009181840F951F029611969C938E938281ED
:10181000938113969C938E931297E0E0F0E0D801A9
:1018200012968D919C911397009719F0F8018C01F5
:10183000F6CF8D919C9198012E5F3F4F820F931FA1
:1018400020916603309167032817390769F43097B0
:1018500029F4109269031092680302C01382128265
:101860001093670300936603DF91CF911F910F914F
:1018700008958F929F92AF92BF92CF92DF92EF9294
:10188000FF92CF93DF93EC01688179818A819B81FC
:10189000611571058105910521F464E279ED8BE50F
:1018A00097E02DE133EF41E050E00E94CD0A49017D
:1018B0005A019B01AC01A7EAB1E40E94EC0A6B015A
:1018C0007C01ACEEB4EFA50194010E94B00CDC01E8
:1018D000CB018C0D9D1DAE1DBF1DB7FF03C0019731
:1018E000A109B04888839983AA83BB83BC01CD0139
:1018F0009F77DF91CF91FF90EF90DF90CF90BF90D7
:10190000AF909F908F9008950E94390C089586E0C3
:1019100091E00E94390C08956093060170930701CD
:1019200080930801909309010895FB01DC0104C034
:101930008D910190801921F441505040C8F7881BC7
:10194000990B0895FB01DC010D900020E9F7119738
:1019500001900D920020E1F70895B7FF0C94EC0A76
:101960000E94EC0A821B930B089510E0C7E3D0E0BD
:1019700004C0FE010E94F70A2196C833D107C9F7B7
:04198000F894FFCF09
:1019840000006A03200001000000313200463320C9
:1019940000463120004632200041726520796F757F
:1019A400206F6B3F005975702C2049276D206665A8
:1019B400656C696E6720677265617421004331202C
:1019C4000043342000433520004D3120004D3220A7
:1019D4000043362000433720004D33200043382095
:1019E40000433920004332200043332000256400A3
:1019F4000D0A00256C6400256C750000000000D3FE
:101A040006AB0600000000D3060A0700000000C170
:101A140008FE0952086C085E08A1086E616E006930
:0A1A24006E66006F7666002E00006B
:00000001FF
