:100000000C9444010C946C010C946C010C940D172D
:100010000C940D170C940D170C946C010C946C013E
:100020000C946C010C946C010C946C010C946C019C
:100030000C946C010C946C010C946C010C946C018C
:100040000C94CF0A0C946C010C94D0090C94020A05
:100050000C946C010C946C010C946C010C946C016C
:100060000C946C010C946C01036EDB363D9A9999EB
:10007000993DABAAAA2A3E000000803F084AD73B20
:100080003BCE016E84BCBFFDC12F3D6C74319ABD67
:1000900056833DDA3D00C77F11BED9E4BB4C3E918B
:1000A0006BAAAABE000000803F072C7AA5BA6CC5D7
:1000B00090DA3B9365FC8BBC53F810FD3C56928361
:1000C0004DBD879D3AB63DCBC9BF5BBE73DA0FC944
:1000D0003F05A84CCDB2D44EB93836A9020C50B960
:1000E000918688083CA6AAAA2ABE000000803F008C
:1000F00000000008000201000003040700000000E7
:1001000000000000010204081020408001020408E1
:100110001020010204081020040404040404040450
:1001200002020202020203030303030300000000B1
:1001300023002600290000000000250028002B00D5
:1001400000000000240027002A004E414E494E497D
:100150005459494E46CDCCCC3D0AD7233C17B7D194
:100160003877CC2B329595E6241FB14F0A0000203A
:10017000410000C84200401C4620BCBE4CCA1B0EB9
:100180005AAEC59D7400407A10F35A00A0724E1802
:10019000090010A5D4E80000E87648170000E40B39
:1001A00054020000CA9A3B000000E1F505000080FF
:1001B000969800000040420F000000A08601000059
:1001C00000102700000000E80300000000640000A9
:1001D0000000000A00000000000100000000002CE8
:1001E00076D888DC674F0823DFC1DFAE59E1B1B7AD
:1001F00096E5E3E453C63AE651997696E8E6C2847A
:1002000026EB898C9B62ED407C6FFCEFBC9C9F4091
:10021000F2BAA56FA5F490055A2AF75C936B6CF9B6
:10022000676DC11BFCE0E40D47FEF520E6B500D08C
:10023000ED902E0300943577050080841E080000A1
:10024000204E0A000000C80C333333330F986E126F
:10025000831141EF8D2114893BE65516CFFEE6DB75
:1002600018D1844B381BF77C1D901DA4BBE42420BF
:100270003284725E228100C9F124ECA1E53D2700A1
:100280001F07320AF013420711241FBECFEFD8E038
:10029000DEBFCDBF12E0A0E0B1E0ECE0FCE402C0C4
:1002A00005900D92AC31B107D9F725E0ACE1B2E091
:1002B00001C01D92A434B207E1F711E0C3E4D1E01C
:1002C00004C02197FE010E94021AC034D107C9F769
:1002D0000E94AF070C94F9250C9400004F925F9296
:1002E0006F927F928F929F92AF92BF92CF92DF9246
:1002F000EF92FF92CF93DF9300D000D0CDB7DEB75F
:100300007C016B01DC014D905D906D907C90DB0178
:100310008D919D910D90BC91A02D89839A83AB8383
:10032000BC839C01AD01C301B2010E94171A25E3F1
:100330003AEF4EE85CE30E942A1D20E030E040E006
:100340005FE30E942A1D0E94971D4B015C01F6018C
:100350002481358146815781D70114966D917D9115
:100360008D919C9117970E94171A25E33AEF4EE85A
:100370005CE30E942A1D20E030E040E05FE30E9441
:100380002A1D0E94971D6B017C0125E33AEF4EE880
:100390005CE3C301B2010E942A1D0E94161B2B01BF
:1003A0003C0125E33AEF4EE85CE369817A818B8179
:1003B0009C810E942A1D0E94161B69837A838B836D
:1003C0009C83A5019401C501B4010E942A1D4B0123
:1003D0005C0129813A814B815C81C301B2010E9499
:1003E0002A1D2B013C01A7019601C701B6010E94FD
:1003F0002A1D9B01AC01C301B2010E942A1D9B0171
:10040000AC01C501B4010E94181A0E94A51D0E94EA
:10041000841A9B01AC010E94181A0F900F900F9044
:100420000F90DF91CF91FF90EF90DF90CF90BF9032
:10043000AF909F908F907F906F905F904F900895B6
:100440002F923F924F925F926F927F928F929F92E4
:10045000AF92BF92CF92DF92EF92FF920F931F93D2
:10046000CF93DF93CDB7DEB72C970FB6F894DEBFEE
:100470000FBECDBF8C011B0125E33AEF4EE85CE3D4
:10048000FC0160817181828193810E942A1D2B0170
:100490003C0125E33AEF4EE85CE3F10160817181B4
:1004A000828193810E942A1D6B017C01C301B201EC
:1004B0000E94161B4B015C01C701B6010E94971DEB
:1004C00069837A838B839C83C301B2010E94971D49
:1004D0006D837E838F839887C701B6010E94161BA8
:1004E0002B013C0125E33AEF4EE85CE3F101648126
:1004F0007581868197810E942A1D6B017C0125E30D
:100500003AEF4EE85CE3F80164817581868197815A
:100510000E942A1D9B01AC01C701B6010E94171A57
:100520006B017C010E94161B69877A878B879C87E9
:10053000C701B6010E94971D6B017C0129813A8198
:100540004B815C81C501B4010E942A1D4B015C01F5
:10055000A30192016D817E818F8198850E942A1D61
:1005600029853A854B855C850E942A1D9B01AC013B
:10057000C501B4010E94171A4B015C01A30192014D
:10058000C701B6010E942A1DA50194010E94B21A5A
:1005900020E030E044E353E40E942A1D2BED3FE0CD
:1005A00049E450E40E941B1B6B017C0120E030E019
:1005B000A9010E94111B87FF0AC020E030E044EB34
:1005C00053E4C701B6010E94181A6B017C0120E0B8
:1005D00030E843EB53E4C701B6010E941D1D181615
:1005E00054F420E030E044EB53E4C701B6010E942C
:1005F000171A6B017C0121EE3EE245E652E4C70189
:10060000B6010E942A1D2C960FB6F894DEBF0FBECD
:10061000CDBFDF91CF911F910F91FF90EF90DF90B1
:10062000CF90BF90AF909F908F907F906F905F9092
:100630004F903F902F9008950E946E012BE73BE76B
:1006400042EC5AE40E942A1D08954F925F926F92E5
:100650007F928F929F92AF92BF92CF92DF92EF9252
:10066000FF920F931F93CF93DF93B82E6A017B0104
:1006700028013901C0E0D0E040E060E080E00E9465
:10068000690E9B01AC01BE018FE692E00E941D0E37
:100690008FE692E00E94580D2196C832D10561F78D
:1006A00020E030E048EC52E4C301B2010E94111B8B
:1006B00087FF0CC02EEA37E445E851E4C301B201DC
:1006C0000E941B1B0E948D1BEB0102C0C6E0D0E004
:1006D000B11002C040E011C081E0B81203C040E098
:1006E0006FEF05C082E0B81204C04FEF60E080E019
:1006F00006C083E0B81208C04FEF60E08FEF0E94A1
:10070000690E4B015C0103C0812C912C540102E164
:1007100010E06196C017D10774F0A5019401B801EB
:100720008FE692E00E941D0E8FE692E00E94580D27
:100730000F5F1F4FEFCF20E030E045EA53E4C701E1
:10074000B6010E941D1D18169CF020E030E0A901A2
:10075000C701B6010E941D1D181674F520E030E097
:1007600040EF51E4C701B6010E94111B87FF24C06E
:100770004FEF6FEF8FEF0E94690E9B01AC0169E0B4
:1007800070E08FE692E00E941D0E4FEF6FEF8FEF4B
:100790000E94690E9B01AC0160E170E08FE692E07F
:1007A0000E941D0E4FEF6FEF8FEF0E94690E9B01AD
:1007B000AC0169E170E087C120E030E040EF51E436
:1007C000C701B6010E941D1D181674F520E030E027
:1007D00040E752E4C701B6010E94111B87FF24C005
:1007E0004FEF6FEF8FEF0E94690E9B01AC0168E045
:1007F00070E08FE692E00E941D0E4FEF6FEF8FEFDB
:100800000E94690E9B01AC0160E070E08FE692E00F
:100810000E941D0E4FEF6FEF8FEF0E94690E9B013C
:10082000AC0161E070E04FC120E030E040E752E40D
:10083000C701B6010E941D1D181674F520E030E0B6
:1008400040EF52E4C701B6010E94111B87FF24C08C
:100850004FEF6FEF8FEF0E94690E9B01AC0164E0D8
:1008600070E08FE692E00E941D0E4FEF6FEF8FEF6A
:100870000E94690E9B01AC016BE070E08FE692E094
:100880000E941D0E4FEF6FEF8FEF0E94690E9B01CC
:10089000AC016DE070E017C120E030E040EF52E4C1
:1008A000C701B6010E941D1D181674F520E030E046
:1008B00046E153E4C701B6010E94111B87FF24C023
:1008C0004FEF6FEF8FEF0E94690E9B01AC0166E066
:1008D00070E08FE692E00E941D0E4FEF6FEF8FEFFA
:1008E0000E94690E9B01AC0167E070E08FE692E028
:1008F0000E941D0E4FEF6FEF8FEF0E94690E9B015C
:10090000AC016FE070E0DFC020E030E046E153E48E
:10091000C701B6010E941D1D181674F520E030E0D5
:1009200042E553E4C701B6010E94111B87FF24C0B2
:100930004FEF6FEF8FEF0E94690E9B01AC016EE0ED
:1009400070E08FE692E00E941D0E4FEF6FEF8FEF89
:100950000E94690E9B01AC0167E170E08FE692E0B6
:100960000E941D0E4FEF6FEF8FEF0E94690E9B01EB
:10097000AC016EE170E0A7C020E030E042E553E456
:10098000C701B6010E941D1D181674F520E030E065
:1009900040E753E4C701B6010E94111B87FF24C042
:1009A0004FEF6FEF8FEF0E94690E9B01AC016FE17B
:1009B00070E08FE692E00E941D0E4FEF6FEF8FEF19
:1009C0000E94690E9B01AC0166E270E08FE692E046
:1009D0000E941D0E4FEF6FEF8FEF0E94690E9B017B
:1009E000AC0167E270E06FC020E030E040E753E424
:1009F000C701B6010E941D1D181674F520E030E0F5
:100A000046E953E4C701B6010E94111B87FF24C0C9
:100A10004FEF6FEF8FEF0E94690E9B01AC0164E214
:100A200070E08FE692E00E941D0E4FEF6FEF8FEFA8
:100A30000E94690E9B01AC016DE170E08FE692E0CF
:100A40000E941D0E4FEF6FEF8FEF0E94690E9B010A
:100A5000AC016BE170E037C020E030E046E953E4E0
:100A6000C701B6010E941D1D18168CF520E030E06C
:100A700045EA53E4C701B6010E94111B87FF27C056
:100A80004FEF6FEF8FEF0E94690E9B01AC0168E1A1
:100A900070E08FE692E00E941D0E4FEF6FEF8FEF38
:100AA0000E94690E9B01AC0160E270E08FE692E06B
:100AB0000E941D0E4FEF6FEF8FEF0E94690E9B019A
:100AC000AC0161E270E08FE692E00E941D0E8FE6BD
:100AD00092E0DF91CF911F910F91FF90EF90DF9007
:100AE000CF90BF90AF909F908F907F906F905F90CE
:100AF0004F900C94580D8F929F92AF92BF92CF92CD
:100B0000DF92EF92FF920F931F93CF93DF93CDB7B6
:100B1000DEB72C970FB6F894DEBF0FBECDBF7C01B9
:100B20006B0162E871E0CE0107960E941F0C62E83B
:100B300071E0CE0101960E941F0C00E010E0F70169
:100B40008481958108171907B8F4B801C7010330EB
:100B5000110538F40E94D40CFC016081CE01079687
:100B600006C00E94D40CFC016081CE0101960E9457
:100B7000C10C0F5F1F4FE3CFCE0107960E94E60C1A
:100B80004B015C01CE0101960E94E60C20E030E0B2
:100B900040E752E40E941B1B9B01AC01C501B4015C
:100BA0000E94181AF6016083718382839383CE01B9
:100BB00001960E94C10BCE0107960E94C10B2C9694
:100BC0000FB6F894DEBF0FBECDBFDF91CF911F915E
:100BD0000F91FF90EF90DF90CF90BF90AF909F90DC
:100BE0008F9008958F929F92AF92BF92CF92DF9293
:100BF000EF92FF920F931F93CF93DF93CDB7DEB7A2
:100C00002C970FB6F894DEBF0FBECDBF7C016B01F1
:100C100062E871E0CE0107960E941F0C62E871E065
:100C2000CE0101960E941F0C00E010E0F7018481C4
:100C3000958108171907B8F4B801C70102301105EA
:100C400038F40E94D40CFC016081CE01079606C0E6
:100C50000E94D40CFC016081CE0101960E94C10C5F
:100C60000F5F1F4FE3CFCE0107960E94E60C4B01AA
:100C70005C01CE0101960E94E60C20E030E040E7E6
:100C800052E40E941B1B9B01AC01C501B4010E94F0
:100C9000181AF6016083718382839383CE010196D3
:100CA0000E94C10BCE0107960E94C10B2C960FB675
:100CB000F894DEBF0FBECDBFDF91CF911F910F9192
:100CC000FF90EF90DF90CF90BF90AF909F908F906C
:100CD00008950F931F93CF93DF93CDB7DEB7C65818
:100CE000D1090FB6F894DEBF0FBECDBF80E8E1EAB0
:100CF000F2E0DE01119601900D928A95E1F762E132
:100D000071E0CE0101960E94812104E313E0009777
:100D100069F0BC01C8010E94610C62E171E080E0F1
:100D200090E00E9481210A5F1F4FF1CFE0914003C4
:100D3000F09141038081863509F474C062E573E067
:100D4000CE018F579F4F0E94580C6BE273E0CE018B
:100D50008F579F4F0E947B05CE018F579F4F0E9458
:100D6000C10B66E473E0CE018F579F4F0E94580C71
:100D700060E373E0CE018F579F4F0E94F205CE01D2
:100D80008F579F4F0E94C10BE0914C03F0914D0390
:100D9000808180932F03E0915803F09159032081C3
:100DA00020932A03833589F4809130039091310395
:100DB000A0913203B0913303B058809330039093E5
:100DC0003103A0933203B0933303273589F4809124
:100DD0002B0390912C03A0912D03B0912E03B058BA
:100DE00080932B0390932C03A0932D03B0932E0399
:100DF0008EE593E00E94E60C609322037093230338
:100E0000809324039093250384E693E00E94E60CEC
:100E100060932603709327038093280390932903FC
:100E200081E001C080E0CA57DF4F0FB6F894DEBF03
:100E30000FBECDBFDF91CF911F910F910895CF933A
:100E4000DF93C4E3D3E062E871E0CE010E941F0C9F
:100E5000269683E0CE38D807B1F720E047E068E077
:100E600082E892E00E94E01723E046E068E270E04A
:100E70008FE692E00E94F20C8EE192E0DF91CF913A
:100E80000C945215CF93DF938FE692E00E943C0DB5
:100E900082E892E00E948717CEE8D3E02697CE0141
:100EA0000E94C10B83E0C433D807C1F7DF91CF9113
:100EB0000895CF93DF9380E8E1EAF2E0DF011D922D
:100EC0008A95E9F7C0E082E892E00E949E160196BA
:100ED000D1F382E892E00E942816EC2FF0E0EF5563
:100EE000FD4F8083CC2329F0843219F48093A10232
:100EF000C0E08091A102843231F781E08C0FEC2FA9
:100F0000F0E0EF55FD4F90819A3011F0C82FDBCF04
:100F100090E0FC01E156FD4F1082EC012597FE01A7
:100F2000EF55FD4F20812A3269F640E150E060E044
:100F300070E083569D4F0E94632021E0822F90E055
:100F40008C179D073CF4FC01EF55FD4F808168270D
:100F50002F5FF4CF6111B6CFDF91CF910895CF937A
:100F6000DF93CDB7DEB760970FB6F894DEBF0FBE44
:100F7000CDBF82EA9AE9A2EAB2EC8D839E83AF8369
:100F8000B88789E991ECA4EEB1E489839A83AB83B5
:100F9000BC830E94860B26E040E052EC61E070E0EA
:100FA0008EE893E00E94670985E794E00E94FF10B5
:100FB0008FE692E00E944B0D64E18FE692E00E9482
:100FC000780E8FE692E00E94580D40E855E260E00E
:100FD00070E082E892E00E940B1864E171E082E820
:100FE00092E00E94A30A65E271E082E892E00E942A
:100FF000A30A6EE371E082E892E00E94A30A8DECFE
:10100000E82E88E0F82E0E9459078091A4028235CC
:10101000C1F50E9469068091300390913103A0913F
:101020003203B091330389879A87AB87BC8780915D
:101030002B0390912C03A0912D03B0912E038D874B
:101040009E87AF87B88BBE016F5F7F4FCE01099639
:101050000E94200260930E0170930F018093100193
:1010600090931101BE016F5F7F4FCE0109960E94E0
:101070001C0360930A0170930B0180930C01909301
:101080000D0100910A0110910B0120910C0130918A
:101090000D0140910E0150910F016091100170916E
:1010A0001101809121030E94250361EA72E08EE81C
:1010B00093E00E94A30AE114F10411F00E94CD080C
:1010C00061EA72E084E292E00E94F61340910E0120
:1010D00050910F01609110017091110123E030E0F7
:1010E00084E292E00E94361440910A0150910B0173
:1010F00060910C0170910D0123E030E084E292E0F8
:101100000E94361440912B0350912C0360912D03C3
:1011100070912E0323E030E084E292E00E943614C6
:101120004091300350913103609132037091330349
:1011300023E030E084E292E00E94361464CFFC01A8
:10114000918D228D892F90E0805C9F4F821B9109A9
:101150008F7399270895FC01918D828D981731F036
:10116000828DE80FF11D858D90E008958FEF9FEF40
:101170000895FC01918D828D981761F0828DDF01B9
:10118000A80FB11D5D968C91928D9F5F9F73928F7A
:1011900090E008958FEF9FEF089588E29AE0892B01
:1011A00049F087EE93E1892B29F00E94280A8111EA
:1011B0000C94E7130895FC01848DDF01A80FB11D85
:1011C000A35ABF4F2C91848D90E001968F77992779
:1011D000848FA689B7892C93A089B1898C9180646A
:1011E0008C93938D848D981308950288F389E02D54
:1011F00080818F7D80830895CF93DF93EC01888D6C
:101200008823B9F0EA89FB89A889B989908195FF7B
:101210000DC00FB607FCFACF908195FFF7CF8C91E8
:1012200085FFF4CFCE010E94DB08ECCF8C9186FFC6
:10123000F0CFDF91CF910895EF92FF920F931F931C
:10124000CF93DF93EC0181E0888F9B8D8C8D981775
:1012500081F1062FEB8CF12C8FEFE81AF80AE89455
:10126000E7F8FF241E2D03C00FB607FE19C09C8DA2
:101270001917D1F38B8DFE01E80FF11DE35AFF4FD3
:101280000083EB8EEA89FB8980818062808381E024
:1012900090E0DF91CF911F910F91FF90EF90089513
:1012A000E889F989808185FFE2CFCE010E94DB08C1
:1012B000DECFE889F989808185FFCBCFEE89FF8970
:1012C0006083E889F989808180648083E0CFBF9260
:1012D000CF92DF92EF92FF920F931F93CF93DF9302
:1012E000EC016A017B01B22EE889F98982E08083F2
:1012F0004115514E61057105B1F060E079E08DE373
:1013000090E0A70196010E94B61989019A01015047
:10131000110921093109369527951795079501156A
:1013200080E11807A8F0E889F989108260E874E87C
:101330008EE190E0A70196010E94B619DA01C90179
:101340000197A109B109B695A795979587958C0145
:10135000EC85FD851083EE85FF850083188EEC8972
:10136000FD89B082EA89FB89808180618083EA8976
:10137000FB89808188608083EA89FB89808180681D
:101380008083EA89FB8980818F7D8083DF91CF9183
:101390001F910F91FF90EF90DF90CF90BF90089535
:1013A0001F920F920FB60F9211242F938F939F933A
:1013B000EF93FF93E0919E03F0919F038081E09172
:1013C000A403F091A50382FD1BC020818091A70397
:1013D0008F5F8F739091A803891741F0E091A70365
:1013E000F0E0E257FC4F258F8093A703FF91EF9128
:1013F0009F918F912F910F900FBE0F901F90189576
:101400008081F4CF1F920F920FB60F9211242F9369
:101410003F934F935F936F937F938F939F93AF937C
:10142000BF93EF93FF938EE893E00E94DB08FF9158
:10143000EF91BF91AF919F918F917F916F915F914C
:101440004F913F912F910F900FBE0F901F901895C5
:101450008EE893E00E949F0821E0892B09F420E0A8
:10146000822F0895EEE8F3E01382128288EE93E073
:10147000A0E0B0E084839583A683B78384E791E0FE
:101480009183808385EC90E09587848784EC90E05D
:101490009787868780EC90E0918B808B81EC90E041
:1014A000938B828B82EC90E0958B848B86EC90E022
:1014B000978B868B118E128E138E148E0895CF9279
:1014C000DF92EF92FF920F931F93CF93DF9341151B
:1014D000510509F16A018C017B01C0E0D0E004C034
:1014E0002196CC16DD0669F0D7016D917D01D801FA
:1014F000ED91FC910190F081E02DC8010995892BB7
:1015000079F7CE01DF91CF911F910F91FF90EF906E
:10151000DF90CF900895C0E0D0E0F3CF6115710562
:1015200079F0FB0101900020E9F73197AF01461BEC
:10153000570BDC01ED91FC910280F381E02D0994C1
:1015400080E090E008950F931F93CF93DF93EC0119
:101550006115710509F1FB0101900020E9F7319750
:10156000AF01461B570BE881F9810280F381E02D22
:1015700009958C01E881F9810280F381E02D42E038
:1015800050E060E871E0CE010995800F911FDF9176
:10159000CF911F910F91089500E010E0EBCF1F92C3
:1015A0000F920FB60F9211242F933F938F939F9317
:1015B000AF93BF9380916C0490916D04A0916E04E1
:1015C000B0916F0430916B0423E0230F2D3768F145
:1015D00026E8230F0296A11DB11D20936B04809372
:1015E0006C0490936D04A0936E04B0936F0480918B
:1015F000700490917104A0917204B09173040196EB
:10160000A11DB11D8093700490937104A093720486
:10161000B0937304BF91AF919F918F913F912F91A0
:101620000F900FBE0F901F9018950196A11DB11D30
:10163000D4CF2FB7F89460916C0470916D048091B1
:101640006E0490916F042FBF08953FB7F894809176
:10165000700490917104A0917204B091730426B546
:10166000A89B05C02F3F19F00196A11DB11D3FBFDA
:10167000BA2FA92F982F8827820F911DA11DB11D68
:10168000BC01CD01660F771F881F991F660F771F5A
:10169000881F991F08958F929F92AF92BF92CF9209
:1016A000DF92EF92FF924B015C010E94250B6B01D0
:1016B0007C0181149104A104B104F9F00E94F10CA1
:1016C0000E94250BDC01CB018C199D09AE09BF09D5
:1016D000883E9340A105B10588F321E0821A910864
:1016E000A108B10888EEC80E83E0D81EE11CF11CE9
:1016F00081149104A104B10419F7FF90EF90DF90D9
:10170000CF90BF90AF909F908F900895789484B5BC
:10171000826084BD84B5816084BD85B5826085BDED
:1017200085B5816085BDEEE6F0E0808181608083D3
:10173000E1E8F0E0108280818260808380818160B6
:101740008083E0E8F0E0808181608083E1EBF0E07D
:10175000808184608083E0EBF0E080818160808321
:10176000EAE7F0E08081846080838081826080830A
:101770008081816080838081806880831092C10035
:101780000895FC01808191810C94A51E0F931F93F5
:10179000CF93DF93FC0180819181009729F0228112
:1017A00033812617370790F48B01EF016F5F7F4F6E
:1017B0000E94991F009781F0998388831B830A8375
:1017C0002C813D81232B11F4FC01108281E0DF91FB
:1017D000CF911F910F91089580E0F9CFEF92FF9282
:1017E0000F931F93CF93DF93EC017B018A01BA0122
:1017F0000E94C60B811114C088819981009711F055
:101800000E94A51E198218821D821C821B821A82C8
:10181000CE01DF91CF911F910F91FF90EF9008952E
:101820001D830C83B701888199810E94AE21CE016E
:10183000DF91CF911F910F91FF90EF900895FC01E0
:101840001182108213821282158214826115710531
:1018500051F0FB0101900020E9F73197AF01461BE1
:10186000570B0C94EE0B0895CF93DF93EC01FB0123
:101870008617970749F0608171816115710541F004
:10188000448155810E94EE0BCE01DF91CF910895E6
:1018900088819981009711F00E94A51E19821882F3
:1018A0001D821C821B821A82CE01DF91CF91089586
:1018B000FC011182108213821282158214820C9410
:1018C000340CCF93DF93EC016115710571F0FB01CE
:1018D00001900020E9F73197AF01461B570B0E949A
:1018E000EE0BCE01DF91CF91089588819981009709
:1018F00011F00E94A51E198218821D821C821B8273
:101900001A82CE01DF91CF910895EF92FF920F934B
:101910001F93CF93DF93FC012481358161157105FD
:10192000A9F04115510541F481E0DF91CF911F915C
:101930000F91FF90EF9008958B01EC017A01E20E78
:10194000F31EB7010E94C60B811108C080E0DF9131
:10195000CF911F910F91FF90EF90089528813981C9
:101960008C819D81B801820F931F0E94AE21FD8260
:10197000EC8281E0DF91CF911F910F91FF90EF906A
:101980000895CF93DF9300D0CDB7DEB769831A8275
:1019900041E050E0BE016F5F7F4F0E94850C0F90C9
:1019A0000F90DF91CF910895FC012481358162175A
:1019B000730738F480819181009719F0860F971F83
:1019C00008951092740484E794E00895FC018081E6
:1019D0009181009711F00C94742160E070E0CB01CC
:1019E00008950895FF920F931F93CF93DF93EC0117
:1019F000F22E798368838B01000F111F060F171FCA
:101A00001B830A834C832B8750E0FA01E85EFE4F6C
:101A1000E491F0E0EE0FFF1FEA5CFE4F8591949198
:101A2000998B888BFA01EC5FFE4F44914A8BC80179
:101A30000E94101E9F838E83009729F0A80160E00A
:101A400070E00E949C21F0FE04C081E08887198626
:101A50000BC0F2FE06C081E0888782E089871A8683
:101A600005C0188681E0898782E08A87DF91CF915F
:101A70001F910F91FF900895CF93DF93EC018E811A
:101A80009F81009711F00E94A51E60E08C81DF917C
:101A9000CF910C94CC18CF93DF93EC0161E08C8153
:101AA0000E94CC1860E08C81DF91CF910C940D19CD
:101AB000CF92DF92EF92FF920F931F93CF93DF931A
:101AC000CDB7DEB729970FB6F894DEBF0FBECDBFF6
:101AD0008C01DC0116968D919C911797892B09F446
:101AE0009DC00E94250BF801C484D584E684F78448
:101AF000DC01CB018C199D09AE09BF09C297A10574
:101B0000B10578F3F894828193819A838983068062
:101B1000F781E02D7F01BFEFEB1AFB0A80818987F7
:101B2000F80193850088F189E02DD80152968C91B7
:101B300091FF30C09081982B988790818095892360
:101B40008F838F818E8388E08D8358856F8149854F
:101B50003D812E8189819A81D701508347FD252FB0
:101B60003A952083262F39F0441F00C0000060837F
:101B7000000000C0F2CF38E04D9160830000019773
:101B800061F7D8015196FC93EE93509749873D83B6
:101B90002E833AC09081982B9887908180958923D5
:101BA0008F838F818C8388E08B8358856F814985F3
:101BB0003B812C8189819A81D701508347FD252F54
:101BC00000C000C0208300C000C000C000C000C032
:101BD00060830000262F3A9541F0441F000000C0AA
:101BE00000C000C000C000C0E8CF38E04D9100C088
:101BF000608300C0019709F7D8015196FC93EE93DA
:101C0000509749873B832C839A83898378940E94D9
:101C1000250BF801648775878687978729960FB605
:101C2000F894DEBF0FBECDBFDF91CF911F910F9112
:101C3000FF90EF90DF90CF9008958F929F92AF9298
:101C4000BF92CF92DF92EF92FF92CF93DF93FC018E
:101C5000808191816817790788F54A01AA24BB24FD
:101C6000B82DC32ED42EE52EFF24AC2D922F8581C6
:101C7000882361F0889E40011124B92DC89E60011F
:101C80001124AD2D289F90011124932F9B01220F29
:101C9000331F620F731F26813781620F731F808588
:101CA000EB01C80FD11DB8838185EB01C80FD11D91
:101CB000A8838285FB01E80FF11D9083DF91CF910E
:101CC000FF90EF90DF90CF90BF90AF909F908F905C
:101CD00008950F931F93962F50E060E070E0592B0A
:101CE0008A019B01282BC901B8011F910F9108950A
:101CF000FF920F931F93CF93DF93EC01FF24F39494
:101D0000F60E2D81F21679F10E811F812150B9F066
:101D10006F3F59F430E040E050E06FEF7FEF80E03C
:101D200090E00E94D819B9010CC08F2D90E0982F37
:101D300088270197622F70E00E948E1902C060E030
:101D400070E0F8014A815B81CF01801B910B841701
:101D5000950740F44081469FC001479F900D112494
:101D60009193F0CFFD82DF91CF911F910F91FF9062
:101D70000895FC01158616861786108A118A128A24
:101D8000138A108E1486148215821092EE04138624
:101D90001682178210861186128608958EE893E0C7
:101DA000909398048093970426E00C946709E0913F
:101DB000F404EA3259F021E02E0F2093F404F0E00D
:101DC000EE0FFF1FE756FB4F918380830895CF935B
:101DD000DF93EC018091970490919804DC01ED91E0
:101DE000FC910190F081E02D09958A85811108C050
:101DF00062E070E080E090E0DF91CF910C944B0BBB
:101E0000DF91CF910895FC0185850895FC018785B8
:101E10000895DC015696ED91FC915797E60FF11D60
:101E20008081089570E0DC015696ED91FC91579702
:101E3000E60FF71F2081222359F0660F771F549673
:101E4000ED91FC915597E60FF71F808191810895E0
:101E500080E090E008950F931F93CF93DF93EC0100
:101E60001B868C81882341F100E010E02C8530E056
:101E70008C899D8902171307ACF49801220F331F38
:101E8000FC01E20FF31F80819181009711F00E9405
:101E9000A51E61E971E08EE893E00E948E0A0F5F53
:101EA0001F4FE4CF1C860E94A51E65E971E08EE8F5
:101EB00093E00E948E0A1C828D81882359F08E89BE
:101EC0009F890E94A51E69E971E08EE893E00E9457
:101ED000A30A1D82DF91CF911F910F9108958091E8
:101EE000EF04882321F09091EE0481E08927089582
:101EF00020E130E040E050E060E070E0CB010E9483
:101F00004119862F809520E1829FC00111246F70B6
:101F1000862B08954F925F926F927F928F929F923D
:101F2000AF92BF92DF92EF92FF920F931F93CF93E6
:101F3000DF93CDB7DEB76F970FB6F894DEBF0FBE55
:101F4000CDBF09A91AA9DBA8FEA80E94190B809091
:101F5000F0049090F104A090F204B090F304DD201E
:101F600009F480C02091ED04222309F47BC0811480
:101F70009104A104B10409F475C0DC01CB018819F6
:101F80009909AA09BB090196A11DB11D883C9105BB
:101F9000A105B10508F066C08091EF0498EC890EA8
:101FA000911CA11CB11C882309F454C0CE010196D8
:101FB0000E94B90ECE0101960E948E140E94190B48
:101FC000681579058A059B05F0F480919704909136
:101FD0009804DC01ED91FC910480F581E02D0995D8
:101FE000892B61F38091970490919804DC01ED9125
:101FF000FC910680F781E02D0995BC01CE01019688
:102000000E942B12DBCF8C858111DFCF0E949614AA
:1020100029C0F8018385882329F180919704909144
:102020009804DC01ED91FC910480F581E02D099587
:10203000892B81F08091970490919804DC01ED91B7
:10204000FC910680F781E02D0995BC0185E794E0BD
:102050000E942B120E94190B681579058A059B05B1
:10206000E0F2D7CF81E08093ED042E01F7E34F0E2D
:10207000511C6FEFC8010E94E70E6DE0C8010E947D
:10208000E70E6D2DC8010E94E70EC8010E94780F6F
:10209000682FC8010E94E70E6DA9C8010E94E70ED3
:1020A0006F2DC8010E94E70E6F2D6095C8010E9438
:1020B000E70EA12CB12C8F2C912CA814B904DCF5BF
:1020C000320182E0680E711CD201ED90FC90F701A4
:1020D0006081C8010E94E70ED7016C916095C8012C
:1020E0000E94E70E412C512CF701808190E04816A8
:1020F00059067CF4D7011196ED91FC911297E40DED
:10210000F51D6081C8010E94E70EBFEF4B1A5B0A04
:10211000EBCFE114F10451F08381882321F0818118
:1021200092810E94A51EC7010E949B18FFEFAF1A63
:10213000BF0A2301C2CF60E0C8010E94E70EDD2084
:1021400079F00E94190BDC01CB010196A11DB11D94
:102150008093F0049093F104A093F204B093F304FD
:102160006F960FB6F894DEBF0FBECDBFDF91CF9153
:102170001F910F91FF90EF90DF90BF90AF909F90D5
:102180008F907F906F905F904F900895CF93DF93E3
:102190001F9222E02F931F921F929F938F930E9472
:1021A0008A0F81E08093F6040F900F900F900F90AC
:1021B0000F900F908091940490919504892BE1F0F9
:1021C000C0E0D0E02091960430E08091940490919A
:1021D0009504C217D30764F49E01220F331FFC013C
:1021E000E20FF31F808191810E94CF152196EACFE3
:1021F0000E94A51E10929604DF91CF910895CF936F
:10220000DF932091F60421110EC0EC0140E052EC66
:1022100061E070E00E94CE0E1092F504CE01DF91D5
:10222000CF910C94C610DF91CF910895AF92BF92D9
:10223000CF92DF92EF92FF920F931F93CF93DF9392
:102240001F92CDB7DEB78C01DC011F968C911F97D2
:10225000823079F416961C92169717968C911797E0
:10226000882309F485C05996ED91FC915A9780E036
:102270000CC0813061F4F80186838781882309F4DA
:1022800077C0018CF28DE02D81E0099571C083301B
:1022900081F41F9281E08F931F921F921F930F93DF
:1022A0000E948A0F0F900F900F900F900F900F9039
:1022B0005FC0853009F05CC060E0C8010E94120F69
:1022C0004BE050E0BC018DE991E00E948621892B12
:1022D00009F04EC01982D8015696ED91FC9157979E
:1022E000A180B12CE12CF12CC12CD12CEA14FB04DF
:1022F00074F461E0C8010E94120F8E0D9F1DFC0155
:102300008081C80ED11CFFEFEF1AFF0AEFCFC98200
:1023100084E090E00E9499187C01DC0113961C92E5
:10232000139781E08C93CE01019612969C938E9325
:10233000119784E090E00E949918FC01138287E1D4
:10234000808389EA91E092838183FF92EF92FF93E9
:10235000EF9382E08F9385E08F931F921F921F93DC
:102360000F930E948A0F0FB6F894DEBF0FBECDBF49
:102370000F90DF91CF911F910F91FF90EF90DF9021
:10238000CF90BF90AF9008950F931F93CF93DF939B
:1023900020918204222329F009E914E0C0E0D0E072
:1023A00006C0DF91CF911F910F910C94161180916F
:1023B000F40490E0C817D9076CF4D8018D919D9171
:1023C0008D01DC01ED91FC910190F081E02D0995EA
:1023D0002196EDCFDF91CF911F910F910895CF936B
:1023E000DF93EC010E946F0F811114C081E0809394
:1023F000EF048A871F9283E08F931F921F92DF93CF
:10240000CF930E948A0F1A860F900F900F900F9013
:102410000F900F90DF91CF910895CF93DF93EC0150
:102420000E946F0F8823A1F01092EF0481E08A8749
:102430001F9284E08F931F921F92DF93CF930E948D
:102440008A0F1A860F900F900F900F900F900F9099
:10245000DF91CF910895CF92DF92EF92FF920F9389
:102460001F93CF93DF93EC018B016F3F8FEF7807C2
:1024700009F46EC19B8591111BC06F3F7105C1F4BA
:10248000CE010E942B0F81E08B871D8A1C8A1F8A38
:102490001E8A888B61EC71E08EE893E0DF91CF912A
:1024A0001F910F91FF90EF90DF90CF900C948E0AC8
:1024B0008889843069F4992309F44AC165EC71E094
:1024C0008EE893E00E948E0A1A8A198A0B8B3DC10E
:1024D000853099F5992309F43BC169EC71E08EE8E8
:1024E00093E00E948E0A4B89842F90E02FEF30E01A
:1024F000281B390B20173107F1F5411102C089E083
:1025000026C1880F991F0E94101E9D8B8C8B6DEC2D
:1025100071E08EE893E00E948E0A11E01C838B89A3
:1025200090E00E94101E9F8B8E8B61ED71E08EE813
:1025300093E00E948E0A1D8308C18630F1F0873037
:1025400009F055C0992309F403C169ED71E08EE8E3
:1025500093E00E948E0A298930E0EE89FF89E20F1C
:10256000F31F6081862F90E04FEF50E0481B590B1E
:102570004017510791F01B8694C0992309F4E8C0D5
:1025800065ED71E08EE893E00E948E0A8989EE89FC
:10259000FF89E80FF11D0083D8C0220F331F0C897B
:1025A0001D89662381F0020F131F0E94101EF8017F
:1025B000918380836DED71E08EE893E00E948E0A36
:1025C00088898F5F0FC0F801E20FF31F118210821C
:1025D0001A8A89898F5F898B9B89891302C089E058
:1025E00001C086E0888B8C858F5F8C87B1C0883076
:1025F00081F5992309F4ACC061EE71E08EE893E0B7
:102600000E948E0A89892C899D89E22FF92FE80F73
:10261000F11DE80FF11D80819181009741F02A8919
:1026200031E0320F3A8BFC01E20FF11D0083898902
:10263000EE89FF89E80FF11D2A899081291388C04E
:102640001A8A8F5F898B9B89891709F47EC086E07F
:102650007EC0893089F5992309F47AC065EE71E06E
:102660008EE893E00E948E0A088F01111AC01B8623
:10267000CE010E94C4118885882399F08D85882316
:1026800081F0CE010E94EF110C891D892E893F89AE
:10269000EB8DFC8D4B896F858D850995CE010E9450
:1026A0000D12CE01DF91CF911F910F91FF90EF900E
:1026B000DF90CF900C942B0F992309F449C08130FF
:1026C00031F50D87002309F440C0888581113DC094
:1026D00039E9C32E34E0D32E00E010E0F12C8091D4
:1026E000F40490E00817190774F4ED84F601819161
:1026F00091916F010E948B14E81202C0FF24F394A1
:102700000F5F1F4FECCFFF2009F435CF1EC0823082
:1027100099F40E878FEF90E0801B910924E0959546
:1027200087952A95E1F70F7010E08017910709F05F
:102730001B8669EE71E005C0833039F40F876DEEBA
:1027400071E08EE893E00E948E0A88898F5F888B03
:10275000DF91CF911F910F91FF90EF90DF90CF907D
:1027600008950F931F93CF93DF93EC01809197040B
:1027700090919804DC01ED91FC910480F581E02DAD
:102780000995892BF9F08091970490919804DC01C8
:10279000ED91FC910680F781E02D09958C01BC013B
:1027A0007727CE010E942B1289858823F9F2CE016A
:1027B0000E94EF11ED8DFE8D802F0995CE010E94B4
:1027C0000D12D4CFDF91CF911F910F910895809179
:1027D000F504811104C085E794E00C94B1130895C9
:1027E00085E794E00C94B90E0C94E315CF92DF9238
:1027F000EF92FF920F931F93CF93DF93CDB7DEB786
:102800006C01EDB6FEB6FB0101900020E9F79F01D7
:10281000261B370B2E5F3F4F8DB79EB7821B930B46
:102820000FB6F8949EBF0FBE8DBF0DB71EB70F5FDA
:102830001F4FEDB7FEB71182C8010E94A32160E8C7
:1028400071E0C8010E94A321B801C6010E94E815E9
:102850000FB6F894FEBE0FBEEDBEDF91CF911F9173
:102860000F91FF90EF90DF90CF900895CF92DF927D
:10287000EF92FF920F931F93CF93DF93CDB7DEB705
:10288000A0970FB6F894DEBF0FBECDBF6C01CB0191
:10289000BA01AE014F5F5F4F7A0130E2FA01119247
:1028A0003A95E9F78A0141E00E94F01DF7019F0186
:1028B0002E193F0981918111FACF2F31310591F005
:1028C000F701E20FF31F8DE08083FE01E20FF31F9B
:1028D0008AE08283FE01E20FF31F1382B701C60173
:1028E0000E94E815A0960FB6F894DEBF0FBECDBFCC
:1028F000DF91CF911F910F91FF90EF90DF90CF90DC
:102900000895089520E032E0FC0131832083638341
:1029100012820C94D70EFC01838108959093F904E0
:102920008093F80481E08093F70408951092F904ED
:102930001092F8041092F70408958091F704882308
:1029400029F08091F8049091F904089585E794E0C6
:1029500008951F93CF93DF93EC011B810E949D1478
:102960000E94030F181328C0CE010E949D140E94DC
:10297000060F8F3FB9F48A818823F1F085E794E050
:102980000E946F0F811118C085E794E00E94EF113B
:10299000EC81FD81099585E794E0DF91CF911F914E
:1029A0000C940D12E881F9810280F381E02DCE01B3
:1029B000DF91CF911F910994DF91CF911F910895DD
:1029C0006F927F928F929F92AF92BF92CF92DF923F
:1029D000EF92FF920F931F93CF93DF93EC010E942E
:1029E0009D140E94060F182FCE010E949D1460E0D6
:1029F0000E94090F113009F046C000E010E0C82E17
:102A0000D12C5E01FFE4AF0EB11C7E0189E4E80E1B
:102A1000F11C4E01ADE48A0E911C3E01B9E06B0E33
:102A2000711C0C151D057CF5CE010E949D1460E003
:102A30000E94120F800F911FDC018C91F501208103
:102A4000318120343105E1F0D701ED91FC911197EE
:102A50009F012F5F3F4F11963C932E938083F5018A
:102A6000808191810196918380832D913C91D40145
:102A70008D919C912817390719F4F70171826082B2
:102A80000F5F1F4FCECFDF91CF911F910F91FF901E
:102A9000EF90DF90CF90BF90AF909F908F907F90FE
:102AA0006F900895CF93DF93EC0122E041E066E25E
:102AB00006960E94F41366E2CE010E94821488E01A
:102AC00092E099838883CE010996FE01E75BFF4F70
:102AD00091838083DE01A55BBF4F11969C938E93FB
:102AE0001296ED93FC93C15BDF4F19821882DF9140
:102AF000CF910895CF92DF92EF92FF920F931F93A1
:102B0000CF93DF93FB0101900020E9F73197EF01AC
:102B1000C61BD70BD9F17B016C0184E090E00E94C9
:102B200099188C01FC0113829E01CF3FD10519F049
:102B300014F02FEF30E0F8012083F282E18284E08C
:102B400090E00E949918FC01138282E08083960134
:102B50002D5F3F4F328321831F930F93FF93EF939A
:102B60008F93C1E0CF931F9289E28F9385E794E022
:102B70009F938F930E948A0FF601C0838DB79EB7F3
:102B80000A960FB6F8949EBF0FBE8DBFDF91CF910E
:102B90001F910F91FF90EF90DF90CF900895CF930A
:102BA000DF93FC01208121110BC0EC016181728156
:102BB0000E947A1589819A81DF91CF910C94A51E8C
:102BC000DF91CF910895FC016283208341830895B2
:102BD000EF92FF920F931F93CF93DF93FB0101902E
:102BE0000020E9F73197EF01C61BD70B51F18B019C
:102BF0007C0184E090E00E949918FC0113829E0100
:102C0000CF3FD10519F014F02FEF30E0208312836D
:102C10000183FF93EF9381E08F93F70180818F937E
:102C20001F9282818F9385E794E09F938F930E94F8
:102C30008A0F8DB79EB708960FB6F8949EBF0FBE49
:102C40008DBFDF91CF911F910F91FF90EF9008956D
:102C500020913C0530913D0528173907B9F4909132
:102C6000FA048091FB04981789F0E091FA04F0E0EF
:102C7000E450FB4F80812091FA0430E02F5F3F4FFA
:102C80002F7333272093FA0490E008958FEF9FEF7E
:102C900008951F93CF93DF93DC015C962D913C91B7
:102CA0005D972115310539F481E090E013969C93EE
:102CB0008E9312973DC05196ED91FC91529750968C
:102CC0009C915097892F80951FB75E964C915E9787
:102CD00041FB772770F941FD6095F8944081772397
:102CE00011F0492B01C048234083E9012197F1F7F6
:102CF00048E0508160FF02C0592B01C05823508327
:102D0000E9012197F1F76695415099F7772321F072
:102D100090818923808303C08081982B90831FBF7B
:102D20005C968D919C915D970197F1F721E030E0E1
:102D3000C901DF91CF911F910895089520913C051D
:102D400030913D052817390771F49091FA0480916C
:102D5000FB04981741F0E091FA04F0E0E450FB4FD7
:102D6000808190E008958FEF9FEF089520913C05BA
:102D700030913D052817390771F48091FB042091AB
:102D8000FA0490E0805C9F4F821B910960E470E040
:102D90000E94A219089580E090E00895E0913C051A
:102DA000F0913D05E817F90769F4A389B4899C916E
:102DB0008589809589238C9310923D0510923C055E
:102DC00081E0089580E00895CF93DF93EC018A8D30
:102DD0009B8D892BF1F080913C0590913D058C17DE
:102DE0009D07B9F0009711F00E94CE168E8D8E7F50
:102DF0008E8F1092FB041092FA04D0933D05C0937D
:102E00003C05EB89FC8990818D89892B808381E049
:102E100001C080E0DF91CF9108951F920F920FB60D
:102E20000F9211242F933F934F935F936F937F9350
:102E30008F939F93AF93BF93EF93FF93E0913C05E4
:102E4000F0913D05309709F451C0968DA685B78560
:102E5000858591FF04C09C91892329F447C09C91EA
:102E6000892309F043C0A389B4899C918589809501
:102E700089238C93868997890197F1F7608D718DED
:102E8000A685B785558538E020E0CB010197F1F79D
:102E9000822F90E095958795282F4C91452309F036
:102EA0002068315091F7868D81FD20958091FB043B
:102EB00090E001968F7399273091FA04381749F002
:102EC000A091FB04B0E0A450BB4F2C938093FB0473
:102ED00003C0868D8160868F828D938D0197F1F777
:102EE000A389B4899C918589892B8C93FF91EF915B
:102EF000BF91AF919F918F917F916F915F914F9112
:102F00003F912F910F900FBE0F901F90189520E1C9
:102F100032E0FC01318320830C94CE161F93CF93B3
:102F2000DF93EC01162F6E8D6695617081E0682746
:102F3000812F0E940D1961E0812F0E94CC18612F12
:102F400070E0FB01EC5FFE4FE491E88BFB01E85E73
:102F5000FE4FE491F0E0EE0FFF1FEA5CFE4F85911B
:102F600094919A8B898BDF91CF911F9108951F9334
:102F7000CF93DF93EC01162F60E0812F0E94CC18D5
:102F80008E8D81FD04C061E0812F0E940D191C8788
:102F9000612F70E0FB01EC5FFE4FE491ED87FB01D8
:102FA000E85EFE4FE491F0E0EE0FFF1FE45DFE4FA0
:102FB000859194919F878E87DF91CF911F9108957E
:102FC0001F93CF93DF93EC01162F1B821A8288EE9A
:102FD00093E0A0E0B0E08C839D83AE83BF8380E16B
:102FE00092E0998388831F8A1E8A198E188E1B8E01
:102FF0001A8E1D8E1C8E8E8D8E7F20FB81F98E8FFA
:10300000642FCE010E948E17612FCE01DF91CF91E8
:103010001F910C94B717CF93DF93EC019A01AB018A
:103020001B8E1A8E198E188E1F8A1E8A60E079E018
:103030008DE390E00E94D819F9012430310518F091
:10304000C901039702C081E090E09D8F8C8F6C8551
:10305000663108F069C0C90196958795843191055C
:1030600010F0439702C081E090E09F8B8E8B3697E3
:1030700018F0C901059702C081E090E0998F888F10
:10308000C901880F991F280F391F36952795369546
:1030900027952D30310518F02C50310902C021E060
:1030A00030E03B8F2A8F90916800683050F021E02B
:1030B0006E3008F420E081E001C0880F2A95EAF71D
:1030C00001C084E0892B809368008C85883038F0BB
:1030D0008E3040F0863148F020E030E008C02DE628
:1030E00030E005C02BE630E002C02CE630E03C8B3F
:1030F0002B8B883030F491E001C0990F8A95EAF764
:103100000EC0282F30E08E3018F42850310902C04C
:103110002E50310991E001C0990F2A95EAF79D8B55
:103120008C8D9D8D0197F1F7CE01DF91CF910C949D
:10313000E4160C94101E0C94A51E8330E9F038F0B0
:10314000873069F0883011F1843079F0089581304A
:10315000C9F0823081F484B58F7D84BD089580915B
:10316000B0008F778093B0000895809180008F7DAC
:103170008093800008950895809180008F778093D8
:103180008000089584B58F7784BD08958091B00044
:103190008F7D8093B0000895CF93DF9390E0FC0182
:1031A000EC5FFE4F2491FC01E85EFE4F8491882382
:1031B000B9F090E0880F991FFC01E05CFE4FA591EB
:1031C000B491FC01EA5CFE4FC591D491662359F09D
:1031D0006230B9F08FB7F894EC91E22BEC938FBF8B
:1031E000DF91CF9108959FB7F8948C91E22FE095ED
:1031F0008E238C932881E223E8839FBFDF91CF91B8
:1032000008959FB7F8943C91822F809583238C93E7
:10321000E881E22BE8839FBFE3CF1F93CF93DF9337
:10322000282F30E0F901E051FF4F8491F901EC5F64
:10323000FE4FD491F901E85EFE4FC491CC23A9F072
:10324000162F81111BC0EC2FF0E0EE0FFF1FEA5C80
:10325000FE4FA591B4918FB7F89411110AC09C91BB
:10326000ED2FE095E923EC938FBFDF91CF911F9174
:103270000895EC91ED2BEC938FBFF7CF0E949D1832
:10328000E2CFCF92DF92EF92FF920F931F93CF93F3
:10329000DF9300D000D0CDB7DEB762177307840785
:1032A000950794F489019A016B017C01A9019801A9
:1032B000261B370B480B590BA1F460E070E0CB01E3
:1032C0006C0D7D1D8E1D9F1D0F900F900F900F9008
:1032D000DF91CF911F910F91FF90EF90DF90CF90F2
:1032E000089529833A834B835C830E948B1F298135
:1032F0003A814B815C810E94D819E2CFDB018F9328
:103300009F930E94F719BF91AF91A29F800D911DCD
:10331000A39F900DB29F900D11240895AA1BBB1B73
:1033200051E107C0AA1FBB1FA617B70710F0A61BC5
:10333000B70B881F991F5A95A9F780959095BC01E6
:10334000CD01089597FB072E16F4009407D077FD62
:1033500009D00E948E1907FC05D03EF49095819506
:103360009F4F0895709561957F4F0895A1E21A2EA1
:10337000AA1BBB1BFD010DC0AA1FBB1FEE1FFF1F19
:10338000A217B307E407F50720F0A21BB30BE40B69
:10339000F50B661F771F881F991F1A9469F76095B0
:1033A0007095809590959B01AC01BD01CF0108956A
:1033B000052E97FB1EF400940E94EF1957FD07D0CD
:1033C0000E94B61907FC03D04EF40C94EF195095E7
:1033D0004095309521953F4F4F4F5F4F0895909501
:1033E0008095709561957F4F8F4F9F4F08950E94F4
:1033F000081AA59F900DB49F900DA49F800D911D5C
:1034000011240895EE0FFF1F0590F491E02D09940B
:10341000A29FB001B39FC001A39F700D811D112415
:10342000911DB29F700D811D1124911D089550585A
:10343000BB27AA270E942F1A0C94CF1C0E94961C0F
:1034400038F00E949D1C20F039F49F3F19F426F4B7
:103450000C94581C0EF4E095E7FB0C94441CE92FE7
:103460000E94F41C58F3BA17620773078407950784
:1034700020F079F4A6F50C94161D0EF4E0950B2EB1
:10348000BA2FA02D0B01B90190010C01CA01A001B6
:103490001124FF27591B99F0593F50F4503E68F111
:1034A0001A16F040A22F232F342F4427585FF3CF52
:1034B000469537952795A795F0405395C9F77EF423
:1034C0001F16BA0B620B730B840BBAF09150A1F06C
:1034D000FF0FBB1F661F771F881FC2F70EC0BA0FF2
:1034E000621F731F841F48F4879577956795B7957A
:1034F000F7959E3F08F0B0CF9395880F08F0992775
:10350000EE0F9795879508959F939F77EEE3893700
:103510009E0728F4E8E6F0E00E94821C0CC00E949E
:10352000001C9058A2EA2AED3FE049EC5FE30E94BC
:103530002F1A0E94CF1C0F9007FC905808950E94EC
:10354000961C60F080E891E009F49EEF0E949D1CBB
:1035500028F040E851E071F45EEF0CC00C94581C68
:103560000C94161DE92FE0780E94F41C40F3092EFC
:10357000052AB1F3261737074807590738F00E2EEA
:1035800007F8E02569F0E025E0640AC0EF6307F87A
:10359000009407FADB01B9019D01DC01CA01AD010C
:1035A000EF930E94321B0E94CF1C0E94E21A5F918F
:1035B000552339F02BED3FE049E450FD49EC0C94E4
:1035C000181A0895DF93DD27B92FBF7740E85FE32E
:1035D0001616170648075B0718F4D92F0E94221DFC
:1035E0009F938F937F936F930E94E51DECE7F0E02C
:1035F0000E945B1C0E94CF1C2F913F914F915F91C5
:103600000E943D1DDD2351F09058A2EA2AED3FE0D3
:1036100049EC5FE3D0785D270E942F1ADF910C946C
:10362000CF1C0E94201C08F481E008950E94A61C73
:10363000E3950C94E01C0E942F1B0C94CF1C0E945D
:103640009D1C58F00E94961C40F029F45F3F29F021
:103650000C94441C51110C94171D0C94581C0E947E
:10366000F41C68F39923B1F3552391F3951B550B83
:10367000BB27AA2762177307840738F09F5F5F4F45
:10368000220F331F441FAA1FA9F335D00E2E3AF084
:10369000E0E832D091505040E695001CCAF72BD09C
:1036A000FE2F29D0660F771F881FBB1F26173707ED
:1036B0004807AB07B0E809F0BB0B802DBF01FF271F
:1036C00093585F4F3AF09E3F510578F00C94441C9C
:1036D0000C94171D5F3FE4F3983ED4F386957795DD
:1036E0006795B795F7959F5FC9F7880F911D9695D8
:1036F000879597F90895E1E0660F771F881FBB1F34
:10370000621773078407BA0720F0621B730B840BE0
:10371000BA0BEE1F88F7E09508950E94941B6894F9
:10372000B1110C94171D08950E94FC1C88F09F573E
:1037300098F0B92F9927B751B0F0E1F0660F771FD5
:10374000881F991F1AF0BA95C9F714C0B13091F0CB
:103750000E94161DB1E008950C94161D672F782F56
:103760008827B85F39F0B93FCCF386957795679590
:10377000B395D9F73EF490958095709561957F4FFC
:103780008F4F9F4F0895E89409C097FB3EF49095A2
:103790008095709561957F4F8F4F9F4F9923A9F02A
:1037A000F92F96E9BB279395F695879577956795B9
:1037B000B795F111F8CFFAF4BB0F11F460FF1BC0FD
:1037C0006F5F7F4F8F4F9F4F16C0882311F096E990
:1037D00011C0772321F09EE8872F762F05C066233E
:1037E00071F096E8862F70E060E02AF09A95660FF7
:1037F000771F881FDAF7880F9695879597F90895B0
:10380000DF93CF931F930F938B01EC01E9EAF0E074
:103810000E945B1C0E94CF1C9801AE018B01EC0141
:1038200060E070E080E89FE30E94171A0E94A51DE7
:103830009801AE010F911F91CF91DF910C943D1D26
:10384000990F0008550FAA0BE0E8FEEF16161706B1
:10385000E807F907C0F012161306E407F50798F019
:10386000621B730B840B950B39F40A2661F0232B32
:10387000242B252B21F408950A2609F4A140A695AE
:103880008FEF811D811D089597F99F6780E870E093
:1038900060E008959F3F31F0915020F4879577952F
:1038A0006795B795880F911D9695879597F9089517
:1038B0009FEF80EC0895DF93CF931F930F93FF92B8
:1038C000EF92DF927B018C01689406C0DA2EEF0143
:1038D0000E943D1DFE01E894A591259135914591E9
:1038E0005591A6F3EF010E942F1AFE019701A8013E
:1038F000DA9469F7DF90EF90FF900F911F91CF91CD
:10390000DF9108959F938F937F936F93FF93EF932E
:103910009B01AC010E942A1DEF91FF910E945B1C4C
:103920002F913F914F915F910C942A1D00240A948E
:103930001616170618060906089500240A9412168A
:1039400013061406050608950C94581C0E94FC1CCE
:10395000D8F3E894E0E0BB279F57F0F02AED3FE072
:1039600049EC06C0EE0FBB0F661F771F881F28F0BB
:10397000B23A62077307840728F0B25A620B730BDE
:10398000840BE3959A9572F7803830F49A95BB0FC3
:10399000661F771F881FD2F790480C944C1C092E85
:1039A0000394000C11F4882352F0BB0F40F4BF2B9A
:1039B00011F460FF04C06F5F7F4F8F4F9F4F0895DA
:1039C000EF93E0FF07C0A2EA2AED3FE049EC5FEB8E
:1039D0000E942F1A0E94CF1C0F90039401FC905854
:1039E000E1EDF0E00C94821C57FD9058440F551FF8
:1039F00059F05F3F71F04795880F97FB991F61F071
:103A00009F3F79F087950895121613061406551FE7
:103A1000F2CF4695F1DF08C0161617061806991F53
:103A2000F1CF86957105610508940895E894BB2748
:103A300066277727CB0197F908950E94201C08F488
:103A40008FEF08959B01AC0160E070E080E89FE398
:103A50000C941B1B0E943D1D0C94CF1C0E94961CB5
:103A600038F00E949D1C20F0952311F00C94441C0A
:103A70000C94581C11240C94171D0E94F41C70F314
:103A8000959FC1F3950F50E0551F629FF001729F03
:103A9000BB27F00DB11D639FAA27F00DB11DAA1F12
:103AA000649F6627B00DA11D661F829F2227B00D5F
:103AB000A11D621F739FB00DA11D621F839FA00DEA
:103AC000611D221F749F3327A00D611D231F849F3A
:103AD000600D211D822F762F6A2F11249F57504091
:103AE0009AF0F1F088234AF0EE0FFF1FBB1F661F0C
:103AF000771F881F91505040A9F79E3F510580F0D5
:103B00000C94441C0C94171D5F3FE4F3983ED4F3CF
:103B1000869577956795B795F795E7959F5FC1F778
:103B2000FE2B880F911D9695879597F908959F9381
:103B30000E94A61C0F9007FCEE5F0C94E01C19F489
:103B400016F40C94581C0C944A1C0E94FC1CB8F3EC
:103B50009923C9F3B6F39F57550B87FF0E94E91DC0
:103B60000024A0E640EA900180585695979528F4E5
:103B7000805C660F771F881F20F0261737074807DD
:103B800030F4621B730B840B202931294A2BA69534
:103B900017940794202531254A2758F7660F771F79
:103BA000881F20F026173707480730F4620B730B85
:103BB000840B200D311D411DA09581F7B901842F83
:103BC0009158880F9695879508959B01AC010C94A8
:103BD0002A1D91505040660F771F881FD2F7089515
:103BE000EF920F931F93CF93DF93E80147FD02C03D
:103BF00034E001C034E1E42F440FFF0BF7FF03C0B2
:103C0000F195E195F109E32E022F2E2FAE010E94CE
:103C1000DC21CE01DF91CF911F910F91EF9008959C
:103C2000CF93DF938230910510F482E090E0E09131
:103C30004005F091410520E030E0C0E0D0E0309751
:103C400011F14081518148175907C0F048175907B1
:103C500061F482819381209719F09B838A832BC022
:103C6000909341058093400526C02115310519F038
:103C70004217530718F49A01BE01DF01EF010280D9
:103C8000F381E02DDCCF2115310509F1281B390B1B
:103C90002430310590F412968D919C911397611503
:103CA000710521F0FB019383828304C09093410549
:103CB00080934005FD01329644C0FD01E20FF31FE1
:103CC00081939193225031092D933C933AC02091D6
:103CD0003E0530913F05232B41F4209102013091A4
:103CE000030130933F0520933E0520910001309160
:103CF00001012115310541F42DB73EB74091040172
:103D000050910501241B350BE0913E05F0913F05D4
:103D1000E217F307A0F42E1B3F0B2817390778F0A2
:103D2000AC014E5F5F4F2417350748F04E0F5F1F01
:103D300050933F0540933E058193919302C0E0E08C
:103D4000F0E0CF01DF91CF9108950F931F93CF93B0
:103D5000DF93009709F48CC0FC0132971382128222
:103D600000914005109141050115110581F4208154
:103D70003181820F931F20913E0530913F05281716
:103D8000390779F5F0933F05E0933E0571C0D801FE
:103D900040E050E0AE17BF0750F412962D913C91D1
:103DA0001397AD012115310509F1D901F3CF9D011B
:103DB000DA013383228360817181860F971F821716
:103DC000930769F4EC0128813981260F371F2E5F94
:103DD0003F4F318320838A819B8193838283452B4C
:103DE00029F4F0934105E093400542C01396FC93FB
:103DF000EE931297ED01499159919E01240F351FC1
:103E0000E217F30771F480819181840F951F029668
:103E100011969C938E938281938113969C938E939B
:103E20001297E0E0F0E0D80112968D919C911397E3
:103E3000009719F0F8018C01F6CF8D919C919801B3
:103E40002E5F3F4F820F931F20913E0530913F051B
:103E50002817390769F4309729F410924105109218
:103E6000400502C01382128210933F0500933E0565
:103E7000DF91CF911F910F9108958F929F92AF92F2
:103E8000BF92CF92DF92EF92FF92CF93DF93EC013C
:103E9000688179818A819B81611571058105910510
:103EA00021F464E279ED8BE597E02DE133EF41E019
:103EB00050E00E94D81949015A019B01AC01A7EAC0
:103EC000B1E40E94F7196B017C01ACEEB4EFA501DF
:103ED00094010E94BD25DC01CB018C0D9D1DAE1D02
:103EE000BF1DB7FF03C00197A109B048888399831C
:103EF000AA83BB83BC01CD019F77DF91CF91FF9057
:103F0000EF90DF90CF90BF90AF909F908F900895EB
:103F10000E943D1F089586E091E00E943D1F089594
:103F20006093060170930701809308019093090143
:103F30000895A0E0B0E0EFE9FFE10C94C625EC01A4
:103F4000009721F4CB010E94101EB8C0FC01E60FBF
:103F5000F71F9C0122503109E217F30708F4ACC0A7
:103F6000D9010D911C91119706171707B0F0053074
:103F7000110508F49FC0C80104978617970708F435
:103F800099C002501109061B170B019311936D93F1
:103F90007C93CF010E94A51E8DC05B01A01AB10ABF
:103FA0004C01800E911EA0914005B091410540E06A
:103FB00050E0E12CF12C109709F44AC0A815B9057E
:103FC000D1F56D907C901197630182E0C80ED11CF1
:103FD000CA14DB0480F1A3014A195B096A0182E07B
:103FE000C80ED11C1296BC9012971396AC91B5E0F6
:103FF000CB16D10440F0B282A38351834083D90110
:104000006D937C930AC00E5F1F4FC301800F911FF9
:10401000F90191838083EB2DFA2FE114F10431F043
:10402000D7011396FC93EE93129744C0F093410589
:10403000E09340053FC08D919C9111974817590717
:1040400008F4AC017D0112960D90BC91A02DB3CF68
:1040500080913E0590913F0588159905E1F446173A
:104060005707C8F48091000190910101009741F435
:104070008DB79EB74091040150910501841B950BAB
:10408000E817F907C8F4F0933F05E0933E05F901FE
:10409000718360830FC0CB010E94101E7C010097CA
:1040A00059F0A801BE010E949321CE010E94A51ED5
:1040B000C70104C0CE0102C080E090E0CDB7DEB7FA
:1040C000EEE00C94E225A0E0B0E0E9E6F0E20C942A
:1040D000C2255C016B017A016115710519F0FB01C4
:1040E00091838083E114F10429F0C701029783973B
:1040F00008F0F1C0E5012196F5011081812F90E0D3
:104100000E947821892B11F05E01F4CF1D3229F431
:104110002196F501118101E007C01B3221F4E50170
:104120002296F501118100E0E114F10459F1F0E16A
:10413000EF16F10461F41033E1F488818F7D883546
:1041400069F519812296026070E1E72EF12C88E072
:10415000E816F10439F12CF4F2E0EF16F104C9F19C
:104160002AC08AE0E816F10479F0E0E1EE16F104E5
:1041700011F550E1E52EF12C812C912CA12C68E059
:10418000B62E2CC01033C9F23AE0E32EF12C4CECE1
:10419000842E982CA82C4CE0B42E20C010E3E114FF
:1041A000F104A9F698E0E92EF12C812C912CA12C98
:1041B00020E1B22E13C060E070E080E090E897014B
:1041C0000F2C000C440B550B0E94B61949015A01E3
:1041D00005C0812C912CA12C80E4B82E60E020E059
:1041E00030E0A90127010F2C000C660877081E019A
:1041F000E0EDE10FEA3060F08FEB810F8A3110F4CF
:10420000E9EC05C08FE9810F8A3128F5E9EAE10F71
:104210008E2F90E08E159F05F4F467FD18C082166E
:104220009306A406B50690F0C301B2010E947E1960
:104230009B01AC012E0F311D411D511D2130310557
:104240004105F0E85F0710F461E001C06FEF2196CF
:10425000F1011081CCCF802F8170C114D10471F095
:10426000662329F02197F601D183C08307C001FF9F
:1042700019C02297F601D183C08314C067FF12C012
:10428000811105C02FEF3FEF4FEF5FE704C020E043
:1042900030E040E050E882E290E090934305809364
:1042A000420516C0882341F05095409530952195E0
:1042B0003F4F4F4F5F4F0CC057FF0AC082E290E064
:1042C00090934305809342052FEF3FEF4FEF5FE759
:1042D000B901CA0104C060E070E080E090E0CDB7B1
:1042E000DEB7E2E10C94DE25662777270C946A237B
:1042F00091110C949F25803219F089508550C8F790
:1043000008954CE152E00E94B5210895FB01DC01C3
:1043100004C08D910190801921F441505040C8F79C
:10432000881B990B0895FB01DC0102C001900D92DE
:1043300041505040D8F70895DC0101C06D934150C1
:104340005040E0F70895FB01DC010D900020E9F7F3
:10435000119701900D920020E1F70895FB01DC0117
:1043600001900D920020E1F70895FA01A191B0812A
:10437000009719F41097E1F0CD01DC01CD010D900B
:10438000002011F4C00113C0FB012191222319F078
:104390002015D9F7F3CFFB012191201519F41E92B6
:1043A000119606C02223C1F70D900020A1F7D0017D
:1043B000FA01A193B08308954F925F926F927F921A
:1043C0009F92AF92BF92CF92DF92EF92FF920F93A4
:1043D0001F93CF93DF93CDB7DEB729970FB6F8942D
:1043E000DEBF0FBECDBF6A01122FB02E2BE3201708
:1043F00020F0FF24F394F00E02C0BCE3FB2E0F2D3F
:1044000027E0AE014F5F5F4F0E94C724AC01898156
:10441000982F9970913031F0E1FC06C0E0FE06C0A3
:1044200090E205C09DE203C09BE201C090E0EE2D4A
:10443000E07183FF3CC0911102C083E001C084E0C1
:10444000811718F4212F281B01C020E0E1110BC0B7
:10445000F601822F30E2882319F031938150FBCF8F
:10446000C20ED11C20E0992329F0D6019C93F601BD
:1044700031966F01C6010396E2FE0AC03EE4D60102
:104480003C9341E411964C93119712963C9306C0CD
:104490003EE6F601308341E641833283FC01322F50
:1044A00040E2332309F442C041933150FACF82FFF6
:1044B00044C0911102C083E001C084E0811718F468
:1044C000212F281B01C020E0E1110BC0F601822F33
:1044D00030E2882319F031938150FBCFC20ED11CFA
:1044E00020E0992329F0D6019C93F60131966F01C3
:1044F000C6010396E2FE0BC039E4D6013C933EE4CC
:1045000011963C93119736E412963C9307C039E616
:10451000F60130833EE6318336E63283FC01322FEA
:1045200040E2332319F041933150FBCFFC01E20FFD
:10453000F11D10828EEF9FEFB7C0F1E0911101C025
:10454000F0E06F2F70E01416150624F49A012F5F27
:104550003F4F02C021E030E0260F371FBB2029F07B
:104560006B2D70E06F5F7F4F02C060E070E0260F40
:10457000371F612F70E0261737071CF4121B212FFD
:1045800001C020E03E2D387159F4D601322F60E28F
:10459000332319F06D933150FBCFC20ED11C20E0B4
:1045A000FF2331F0D6019C93B6016F5F7F4F6B0103
:1045B000E1110BC0F601922F30E3992319F03193EA
:1045C0009150FBCFC20ED11C20E09F2D940F3A8159
:1045D000782F7071A72E84FF03C0313309F49150F6
:1045E000191624F4993018F098E001C091E0E42FF6
:1045F000852F57FF02C0E0E080E06E2F782FE0E0CB
:10460000F0E0AEE29A2E3A01691A71082A01461AC0
:10461000570A0B2D10E01195019511096F3F8FEF8F
:10462000780729F4D6019C92C60101966C014617C1
:10463000570784F0661677066CF47F01E40CF51CCE
:10464000A1E0B0E0AC0FBD1FEA0EFB1ED701119632
:10465000BC9002C090E3B92E615071093196C60139
:1046600001967C016017710724F0D601BC926C01A1
:10467000D5CF6417750741F4363320F4353321F470
:10468000A11002C081E3B82EF601B082F701822F9B
:1046900090E2882319F091938150FBCFF701E20F4C
:1046A000F11D108280E090E029960FB6F894DEBFED
:1046B0000FBECDBFDF91CF911F910F91FF90EF9073
:1046C000DF90CF90BF90AF909F907F906F905F9062
:1046D0004F900895A0E0B0E0E0E7F3E20C94C62527
:1046E000EC017B016115710519F0DB018D939C9341
:1046F0008E010F5F1F4F7880872D90E00E947821F8
:10470000892B11F0E801F4CFBDE27B1205C00F5FE9
:104710001F4F7980C1E008C0EBE27E1204C08E0119
:104720000E5F1F4F7980C0E06801F1E0CF1AD10819
:1047300043E050E062E571E0C6010E94A225892BAA
:10474000F1F4680122E0C20ED11C45E050E06DE4B6
:1047500071E0C6010E94A225892B21F4680187E03F
:10476000C80ED11CE114F10419F0D701CD92DC92EE
:10477000C111FFC060E070E080E89FE703C143E043
:1047800050E06AE471E0C6010E94A225892B51F431
:10479000E114F10409F4F2C00E5F1F4FF701118319
:1047A0000083ECC0680160E070E0CB0100E010E045
:1047B000F601D0EDD70DDA3058F52C2F2260622E9D
:1047C0002C2F2870C2FF05C0211128C00F5F1F4F7A
:1047D00025C0222311F001501109A5E0B0E09B0192
:1047E000AC010E94F7194B015C01880C991CAA1CB2
:1047F000BB1CC501B4016D0F711D811D911D683970
:10480000A9E97A078A07A9E19A0740F0C66005C0BE
:10481000DE3F51F4C3FD44C0C8606C2EBFEFCB1A1D
:10482000DB0A7080C62DC4CF2D2F2F7D2531C1F519
:1048300040814D3211F4C06106C04B3221F03196F7
:1048400021E030E006C03296D60111964C9122E06C
:1048500030E0A0EDA40FAA3018F0E21BF30B20C04B
:1048600040E050E04038BCE05B075CF49A01220F66
:10487000331F220F331F420F531F440F551F4A0F80
:10488000511D3196DF0111972C91A0EDA20FAA3096
:1048900048F3C4FF03C0519541955109040F151FFA
:1048A000C1FF07C0E114F10421F03197D701ED9366
:1048B000FC930E94C31BC370C33019F06B017C01D1
:1048C00006C06B017C01F7FAF094F7F8F09420E051
:1048D00030E0A901C701B6010E94111B882309F429
:1048E00045C017FF06C0119501951109C9E6D1E031
:1048F00002C0C1E8D1E05E01B8E1AB1AB1084601DF
:10490000BE2DAF2D90E2E92EF12C0E151F0584F07F
:10491000FE012591359145915491B4018B2F9A2F29
:104920000E942A1D4B01B82FA92F0E191F09EDCF88
:104930002497F594E794CA15DB0539F76401EB2E4B
:10494000FA2E8E2D880F8F2D881F8F3F49F020E083
:1049500030E0A901C701B6010E94111B811106C0F8
:1049600082E290E09093430580934205C701B6012F
:1049700009C060E070E080E89FEF04C060E070E094
:1049800080EC9FE7CDB7DEB7EEE00C94E22528304F
:1049900008F027E03327DA01990F311D87FD916078
:1049A00000966105710539F432602E5F3D9330E366
:1049B0002A95E1F708959F3F30F080387105610531
:1049C00009F03C5F3C5F3D93913008F08068911D99
:1049D000DF93CF931F930F93FF92EF92192F987F3E
:1049E0009695E92F96959695E90FFF27E152FE4F90
:1049F00099273327EE24FF24A701E70105900894A7
:104A0000079428F4360FE71EF81E491F511D660F44
:104A1000771F881F991F0694A1F70590079428F423
:104A2000E70EF81E491F561FC11D770F881F991FDB
:104A3000661F0694A1F70590079428F4F80E491F05
:104A4000561FC71FD11D880F991F661F771F069419
:104A5000A1F70590079420F4490F561FC71FD81FD0
:104A6000990F661F771F881F0694A9F784911095E8
:104A7000177041F0D695C79557954795F794E794E9
:104A80001A95C1F7E5E8F1E0689415901591359114
:104A90006591959105907FE27395E118F10A430BBA
:104AA000560BC90BD009C0F7E10CF11E431F561F6E
:104AB000C91FD01D7EF4703311F48A95E6CFE894B7
:104AC000015030F0080F0AF40027021708F4202FD5
:104AD0002395022F7A3328F079E37D932A95E9F71D
:104AE00010C07D932A9589F606949795679537951A
:104AF00017951794E118F10A430B560BC90BD0090F
:104B000098F023957E9173957A3308F070E37C9347
:104B10002013B8F77E9170617D9330F0839571E337
:104B20007D9370E32A95E1F71124EF90FF900F91A8
:104B30001F91CF91DF91992787FD9095089599272F
:104B400088270895FB01DC014150504088F08D9189
:104B500081341CF08B350CF4805E659161341CF05F
:104B60006B350CF4605E861B611171F3990B08952F
:104B7000881BFCCFB7FF0C94F7190E94F719821B12
:104B8000930B08952F923F924F925F926F927F9274
:104B90008F929F92AF92BF92CF92DF92EF92FF924D
:104BA0000F931F93CF93DF93CDB7DEB7CA1BDB0BF9
:104BB0000FB6F894DEBF0FBECDBF09942A8839889E
:104BC00048885F846E847D848C849B84AA84B984A5
:104BD000C884DF80EE80FD800C811B81AA81B981B1
:104BE000CE0FD11D0FB6F894DEBF0FBECDBFED01C5
:104BF000089511E0C3E4D1E004C0FE010E94021A4E
:0C4C00002196C434D107C9F7F894FFCF07
:104C0C0000004405200001000000000048420000A4
:104C1C00A0412C0024504D544B3232302C313030CA
:104C2C00302A31460024504D544B3330302C313027
:104C3C0030302C302C302C302C302A314300245086
:104C4C004D544B3331342C302C312C302C302C3007
:104C5C002C302C302C302C302C302C302C302C3068
:104C6C002C302C302C302C302C302C302A3239007B
:104C7C00000000001C095F0A9F08B908AB08FC087B
:104C8C000D0A006E616E00696E66006F7666002E0E
:104C9C000046332000463120004632200041726528
:104CAC0020796F75206F6B3F005975702C20492748
:104CBC006D206665656C696E67206772656174212D
:104CCC00004331200043342000433520004D312077
:104CDC00004D32200043362000433720004D332056
:104CEC000043382000433920004332200043332056
:104CFC0000256400256C6400256C75000000000024
:104D0C00A914811400000000A914E0140000000094
:0C4D1C0049165F0AB61628169E169D1652
:00000001FF
