:100000000C945F000C9487000C9487000C9487007C
:100010000C9487000C9487000C9487000C94870044
:100020000C9487000C9487000C9487000C94870034
:100030000C9487000C9487000C9487000C94870024
:100040000C94EE050C9487000C945A040C948C04C8
:100050000C9487000C9487000C9487000C94870004
:100060000C9487000C948700000000080002010037
:100070000003040700000000000000000102040863
:100080001020408001020408102001020408102002
:10009000040404040404040402020202020203032E
:1000A0000303030300000000250028002B000000CC
:1000B0000000240027002A002B03B204330311247C
:1000C0001FBECFEFD8E0DEBFCDBF11E0A0E0B1E0B2
:1000D000E0E2F8E102C005900D92A832B107D9F72D
:1000E00022E0A8E2B1E001C01D92A532B207E1F71B
:1000F00010E0CEE5D0E004C02197FE010E94650922
:10010000CC35D107C9F70E94DF020C94030C0C9484
:1001100000004F925F926F927F928F929F92AF9268
:10012000BF92CF92DF92EF92FF920F931F93CF93E4
:10013000DF93B82E6A017B0128013901C0E0D0E0CD
:1001400040E060E080E00E941C089B01AC01BE0121
:1001500088E291E00E94D00788E291E00E940B07BC
:100160002196C832D10561F720E030E048EC52E436
:10017000C301B2010E946B0987FF0CC02EEA37E46D
:1001800045E851E4C301B2010E9470090E94E209EE
:10019000EB0102C0C6E0D0E0B11002C040E011C0E7
:1001A00081E0B81203C040E06FEF05C082E0B812F2
:1001B00004C04FEF60E080E006C083E0B81208C0E2
:1001C0004FEF60E08FEF0E941C084B015C0103C001
:1001D000812C912C540102E110E06196C017D107E7
:1001E00074F0A5019401B80188E291E00E94D00763
:1001F00088E291E00E940B070F5F1F4FEFCF20E0D6
:1002000030E045EA53E4C701B6010E94CA0A181655
:100210009CF020E030E0A901C701B6010E94CA0AA3
:10022000181674F520E030E040EF51E4C701B60144
:100230000E946B0987FF24C04FEF6FEF8FEF0E9482
:100240001C089B01AC0169E070E088E291E00E942B
:10025000D0074FEF6FEF8FEF0E941C089B01AC019E
:1002600060E170E088E291E00E94D0074FEF6FEF0D
:100270008FEF0E941C089B01AC0169E170E087C10F
:1002800020E030E040EF51E4C701B6010E94CA0A05
:10029000181674F520E030E040E752E4C701B601DB
:1002A0000E946B0987FF24C04FEF6FEF8FEF0E9412
:1002B0001C089B01AC0168E070E088E291E00E94BC
:1002C000D0074FEF6FEF8FEF0E941C089B01AC012E
:1002D00060E070E088E291E00E94D0074FEF6FEF9E
:1002E0008FEF0E941C089B01AC0161E070E04FC1E0
:1002F00020E030E040E752E4C701B6010E94CA0A9C
:10030000181674F520E030E040EF52E4C701B60162
:100310000E946B0987FF24C04FEF6FEF8FEF0E94A1
:100320001C089B01AC0164E070E088E291E00E944F
:10033000D0074FEF6FEF8FEF0E941C089B01AC01BD
:100340006BE070E088E291E00E94D0074FEF6FEF22
:100350008FEF0E941C089B01AC016DE070E017C19B
:1003600020E030E040EF52E4C701B6010E94CA0A23
:10037000181674F520E030E046E153E4C701B601F9
:100380000E946B0987FF24C04FEF6FEF8FEF0E9431
:100390001C089B01AC0166E070E088E291E00E94DD
:1003A000D0074FEF6FEF8FEF0E941C089B01AC014D
:1003B00067E070E088E291E00E94D0074FEF6FEFB6
:1003C0008FEF0E941C089B01AC016FE070E0DFC062
:1003D00020E030E046E153E4C701B6010E94CA0ABA
:1003E000181674F520E030E042E553E4C701B60189
:1003F0000E946B0987FF24C04FEF6FEF8FEF0E94C1
:100400001C089B01AC016EE070E088E291E00E9464
:10041000D0074FEF6FEF8FEF0E941C089B01AC01DC
:1004200067E170E088E291E00E94D0074FEF6FEF44
:100430008FEF0E941C089B01AC016EE170E0A7C029
:1004400020E030E042E553E4C701B6010E94CA0A49
:10045000181674F520E030E040E753E4C701B60118
:100460000E946B0987FF24C04FEF6FEF8FEF0E9450
:100470001C089B01AC016FE170E088E291E00E94F2
:10048000D0074FEF6FEF8FEF0E941C089B01AC016C
:1004900066E270E088E291E00E94D0074FEF6FEFD4
:1004A0008FEF0E941C089B01AC0167E270E06FC0F7
:1004B00020E030E040E753E4C701B6010E94CA0AD9
:1004C000181674F520E030E046E953E4C701B601A0
:1004D0000E946B0987FF24C04FEF6FEF8FEF0E94E0
:1004E0001C089B01AC0164E270E088E291E00E948C
:1004F000D0074FEF6FEF8FEF0E941C089B01AC01FC
:100500006DE170E088E291E00E94D0074FEF6FEF5D
:100510008FEF0E941C089B01AC016BE170E037C0BB
:1005200020E030E046E953E4C701B6010E94CA0A60
:1005300018168CF520E030E045EA53E4C701B60117
:100540000E946B0987FF27C04FEF6FEF8FEF0E946C
:100550001C089B01AC0168E170E088E291E00E9418
:10056000D0074FEF6FEF8FEF0E941C089B01AC018B
:1005700060E270E088E291E00E94D0074FEF6FEFF9
:100580008FEF0E941C089B01AC0161E270E088E2E1
:1005900091E00E94D00788E291E0DF91CF911F9116
:1005A0000F91FF90EF90DF90CF90BF90AF909F9012
:1005B0008F907F906F905F904F900C940B070E94EC
:1005C0006A0626E040E052EC61E070E08BE391E0E7
:1005D0000E94F10388E291E00E94FE0664E188E255
:1005E00091E00E942B0888E291E00E940B070E9494
:1005F00038067B0124E6E20EF11CC0E0D0E00E9448
:100600003806870120E030E006171707280739076A
:1006100088F48AE0E80EF11C2196C93621E0D20761
:1006200014F0C0E0D0E04AE050E0BE018BE391E07E
:100630000E94CF05BE010D2E000C880B990B0E9465
:100640001A0AAB01BC0100E010E02AEF33E481E0BC
:100650000E948900D4CF23E046E06CE370E088E29A
:1006600091E00C94A50688E291E00C94EF06FC0161
:10067000918D228D892F90E0805C9F4F821B910984
:100680008F7399270895FC01918D828D981731F011
:10069000828DE80FF11D858D90E008958FEF9FEF1B
:1006A0000895FC01918D828D981761F0828DDF0194
:1006B000A80FB11D5D968C91928D9F5F9F73928F55
:1006C00090E008958FEF9FEF0895FC01848DDF0186
:1006D000A80FB11DA35ABF4F2C91848D90E00196B5
:1006E0008F779927848FA689B7892C93A089B189A0
:1006F0008C9180648C93938D848D981308950288D7
:10070000F389E02D80818F7D80830895CF93DF93DF
:10071000EC01888D8823B9F0EA89FB89A889B98919
:10072000908195FF0DC00FB607FCFACF908195FF21
:10073000F7CF8C9185FFF4CFCE010E946503ECCFFB
:100740008C9186FFF0CFDF91CF910895EF92FF92C9
:100750000F931F93CF93DF93EC0181E0888F9B8DE4
:100760008C8D981781F1062FEB8CF12C8FEFE81A06
:10077000F80AE894E7F8FF241E2D03C00FB607FE21
:1007800019C09C8D1917D1F38B8DFE01E80FF11D57
:10079000E35AFF4F0083EB8EEA89FB8980818062F8
:1007A000808381E090E0DF91CF911F910F91FF90C6
:1007B000EF900895E889F989808185FFE2CFCE0125
:1007C0000E946503DECFE889F989808185FFCBCF60
:1007D000EE89FF896083E889F9898081806480835C
:1007E000E0CFBF92CF92DF92EF92FF920F931F93D1
:1007F000CF93DF93EC016A017B01B22EE889F9897E
:1008000082E080834115514E61057105B1F060E0D1
:1008100079E08DE390E0A70196010E942409890107
:100820009A0101501109210931093695279517952B
:100830000795011580E11807A8F0E889F989108269
:1008400060E874E88EE190E0A70196010E94240917
:10085000DA01C9010197A109B109B695A795979544
:1008600087958C01EC85FD851083EE85FF850083DF
:10087000188EEC89FD89B082EA89FB8980818061CC
:100880008083EA89FB89808188608083EA89FB898B
:10089000808180688083EA89FB8980818F7D808365
:1008A000DF91CF911F910F91FF90EF90DF90CF904C
:1008B000BF9008951F920F920FB60F9211242F939D
:1008C0008F939F93EF93FF93E0914B01F0914C0135
:1008D0008081E0915101F091520182FD1BC0208185
:1008E000809154018F5F8F7390915501891741F06A
:1008F000E0915401F0E0E55CFE4F258F80935401B8
:10090000FF91EF919F918F912F910F900FBE0F90BC
:100910001F9018958081F4CF1F920F920FB60F92FF
:1009200011242F933F934F935F936F937F938F93F4
:100930009F93AF93BF93EF93FF938BE391E00E945C
:100940006503FF91EF91BF91AF919F918F917F913F
:100950006F915F914F913F912F910F900FBE0F902C
:100960001F901895EBE3F1E01382128288EE93E07A
:10097000A0E0B0E084839583A683B7838AE091E00A
:100980009183808385EC90E09587848784EC90E068
:100990009787868780EC90E0918B808B81EC90E04C
:1009A000938B828B82EC90E0958B848B86EC90E02D
:1009B000978B868B118E128E138E148E0895CF9284
:1009C000DF92EF92FF920F931F93CF93DF93411526
:1009D000510509F16A018C017B01C0E0D0E004C03F
:1009E0002196CC16DD0669F0D7016D917D01D80105
:1009F000ED91FC910190F081E02DC8010995892BC2
:100A000079F7CE01DF91CF911F910F91FF90EF9079
:100A1000DF90CF900895C0E0D0E0F3CF8F929F9207
:100A2000AF92BF92CF92DF92EF92FF920F931F93FC
:100A3000CF93DF93CDB7DEB7A1970FB6F894DEBFA3
:100A40000FBECDBF7C01D42EC52EDB0119A22230F2
:100A500008F44DC0822E912CA12CB12C8E010F5D7B
:100A60001F4F07C0605DF8016083232B242B252BCB
:100A7000C1F06D2D7C2DCD01A50194010E942409AA
:100A8000D22EC32EDA01015011096A307105810599
:100A9000910540F3695CF8016083232B242B252BFF
:100AA00041F70115110549F101900020E9F731974F
:100AB000AF01401B510BD701ED91FC910280F381F6
:100AC000E02DB801C7010995A1960FB6F894DEBFD5
:100AD0000FBECDBFDF91CF911F910F91FF90EF908F
:100AE000DF90CF90BF90AF909F908F9008958AE055
:100AF000882E912CA12CB12CB1CF80E090E0E4CFD6
:100B0000CF92DF92EF92FF920F931F93CF93DF93D9
:100B1000EC016A017B0121153105A1F02A30310574
:100B200069F0B701A601CE01DF91CF911F910F911E
:100B3000FF90EF90DF90CF900C940E0577FD11C0E1
:100B40002AE0EFCFE881F9810190F081E02D642F58
:100B5000DF91CF911F910F91FF90EF90DF90CF9099
:100B60000994E881F9810190F081E02D6DE2099509
:100B70008C0144275527BA014C195D096E097F097C
:100B80002AE0CE010E940E05800F911FDF91CF91C8
:100B90001F910F91FF90EF90DF90CF9008950F93EA
:100BA0001F93CF93DF93EC019A01AB01770F660B94
:100BB000770B0E9480058C01E881F9810280F38126
:100BC000E02D42E050E066E171E0CE010995800F32
:100BD000911FDF91CF911F910F9108951F920F9256
:100BE0000FB60F9211242F933F938F939F93AF9340
:100BF000BF938091190290911A02A0911B02B091AB
:100C00001C023091180223E0230F2D3768F126E8EB
:100C1000230F0296A11DB11D209318028093190283
:100C200090931A02A0931B02B0931C0280911D02A4
:100C300090911E02A0911F02B09120020196A11D69
:100C4000B11D80931D0290931E02A0931F02B093CA
:100C50002002BF91AF919F918F913F912F910F9063
:100C60000FBE0F901F9018950196A11DB11DD4CFF6
:100C70002FB7F8946091190270911A0280911B02AB
:100C800090911C022FBF08953FB7F89480911D02E8
:100C900090911E02A0911F02B091200226B5A89B40
:100CA00005C02F3F19F00196A11DB11D3FBFBA2FFE
:100CB000A92F982F8827820F911DA11DB11DBC015E
:100CC000CD01660F771F881F991F660F771F881F3A
:100CD000991F0895789484B5826084BD84B581603D
:100CE00084BD85B5826085BD85B5816085BDEEE634
:100CF000F0E0808181608083E1E8F0E01082808113
:100D000082608083808181608083E0E8F0E0808180
:100D100081608083E1EBF0E0808184608083E0EBA0
:100D2000F0E0808181608083EAE7F0E08081846088
:100D300080838081826080838081816080838081E4
:100D4000806880831092C1000895FF920F931F93D3
:100D5000CF93DF93EC01F22E798368838B01000F30
:100D6000111F060F171F1B830A834C832B8750E02C
:100D7000FA01E057FF4FE491F0E0EE0FFF1FEC5552
:100D8000FF4F85919491998B888BFA01E458FF4F1E
:100D900044914A8BC8010E94CF0A9F838E8300979B
:100DA00029F0A80160E070E00E94FC0BF0FE04C096
:100DB00081E0888719860BC0F2FE06C081E0888733
:100DC00082E089871A8605C0188681E0898782E0DB
:100DD0008A87DF91CF911F910F91FF900895CF9354
:100DE000DF93EC018E819F81009711F00E94640BCC
:100DF00060E08C81DF91CF910C949B08CF93DF93BF
:100E0000EC0161E08C810E949B0860E08C81DF91A5
:100E1000CF910C94DC08CF92DF92EF92FF920F9368
:100E20001F93CF93DF93CDB7DEB729970FB6F89412
:100E3000DEBF0FBECDBF8C01DC0116968D919C915B
:100E40001797892B09F49DC00E944406F801C484B9
:100E5000D584E684F784DC01CB018C199D09AE09A9
:100E6000BF09C297A105B10578F3F89482819381F7
:100E70009A8389830680F781E02D7F01BFEFEB1A0B
:100E8000FB0A80818987F80193850088F189E02D2C
:100E9000D80152968C9191FF30C09081982B988701
:100EA0009081809589238F838F818E8388E08D83C5
:100EB00058856F8149853D812E8189819A81D7012D
:100EC000508347FD252F3A952083262F39F0441F64
:100ED00000C000006083000000C0F2CF38E04D91F8
:100EE00060830000019761F7D8015196FC93EE935F
:100EF000509749873D832E833AC09081982B9887DD
:100F00009081809589238F838F818C8388E08B8368
:100F100058856F8149853B812C8189819A81D701D0
:100F2000508347FD252F00C000C0208300C000C0B3
:100F300000C000C000C060830000262F3A9541F039
:100F4000441F000000C000C000C000C000C0E8CFC7
:100F500038E04D9100C0608300C0019709F7D801C7
:100F60005196FC93EE93509749873B832C839A8349
:100F7000898378940E944406F80164877587868780
:100F8000978729960FB6F894DEBF0FBECDBFDF91CD
:100F9000CF911F910F91FF90EF90DF90CF90089528
:100FA0008F929F92AF92BF92CF92DF92EF92FF9279
:100FB000CF93DF93FC01808191816817790788F5D1
:100FC0004A01AA24BB24B82DC32ED42EE52EFF241B
:100FD000AC2D922F8581882361F0889E40011124D9
:100FE000B92DC89E60011124AD2D289F90011124B8
:100FF000932F9B01220F331F620F731F26813781AE
:10100000620F731F8085EB01C80FD11DB8838185E6
:10101000EB01C80FD11DA8838285FB01E80FF11DEC
:101020009083DF91CF91FF90EF90DF90CF90BF90B2
:10103000AF909F908F9008950F931F93962F50E03D
:1010400060E070E0592B8A019B01282BC901B8018F
:101050001F910F910895FF920F931F93CF93DF93EA
:10106000EC01FF24F394F60E2D81F21679F10E8136
:101070001F812150B9F06F3F59F430E040E050E05B
:101080006FEF7FEF80E090E00E944609B9010CC04D
:101090008F2D90E0982F88270197622F70E00E9493
:1010A000100902C060E070E0F8014A815B81CF0165
:1010B000801B910B8417950740F44081469FC00127
:1010C000479F900D11249193F0CFFD82DF91CF9136
:1010D0001F910F91FF9008958330E9F038F0873029
:1010E00069F0883011F1843079F008958130C9F0C9
:1010F000823081F484B58F7D84BD08958091B000E5
:101100008F778093B0000895809180008F7D8093C9
:10111000800008950895809180008F7780938000EB
:10112000089584B58F7784BD08958091B0008F7D38
:101130008093B0000895CF93DF9390E0FC01E458D2
:10114000FF4F2491FC01E057FF4F84918823B9F0B1
:1011500090E0880F991FFC01E255FF4FA591B491D3
:10116000FC01EC55FF4FC591D491662359F06230D4
:10117000B9F08FB7F894EC91E22BEC938FBFDF912D
:10118000CF9108959FB7F8948C91E22FE0958E232C
:101190008C932881E223E8839FBFDF91CF9108954C
:1011A0009FB7F8943C91822F809583238C93E8819C
:1011B000E22BE8839FBFE3CF1F93CF93DF93282FCA
:1011C00030E0F901E859FF4F8491F901E458FF4FED
:1011D000D491F901E057FF4FC491CC23A9F0162F09
:1011E00081111BC0EC2FF0E0EE0FFF1FEC55FF4FFD
:1011F000A591B4918FB7F89411110AC09C91ED2F6D
:10120000E095E923EC938FBFDF91CF911F91089573
:10121000EC91ED2BEC938FBFF7CF0E946C08E2CFDF
:10122000AA1BBB1B51E107C0AA1FBB1FA617B7070C
:1012300010F0A61BB70B881F991F5A95A9F7809528
:101240009095BC01CD010895A1E21A2EAA1BBB1BEB
:10125000FD010DC0AA1FBB1FEE1FFF1FA217B30782
:10126000E407F50720F0A21BB30BE40BF50B661F98
:10127000771F881F991F1A9469F76095709580955C
:1012800090959B01AC01BD01CF010895052E97FB00
:101290001EF400940E945D0957FD07D00E942409A6
:1012A00007FC03D04EF40C945D09509540953095A1
:1012B00021953F4F4F4F5F4F0895909580957095C2
:1012C00061957F4F8F4F9F4F0895EE0FFF1F059041
:1012D000F491E02D09940E94550A08F481E00895E4
:1012E0000E9484090C94900A0E94890A58F00E9476
:1012F000820A40F029F45F3F29F00C94790A5111D9
:101300000C94C40A0C947F0A0E94A10A68F39923E2
:10131000B1F3552391F3951B550BBB27AA276217F1
:101320007307840738F09F5F5F4F220F331F441FFE
:10133000AA1FA9F335D00E2E3AF0E0E832D0915032
:101340005040E695001CCAF72BD0FE2F29D0660F1F
:10135000771F881FBB1F261737074807AB07B0E862
:1013600009F0BB0B802DBF01FF2793585F4F3AF068
:101370009E3F510578F00C94790A0C94C40A5F3FA3
:10138000E4F3983ED4F3869577956795B795F795EE
:101390009F5FC9F7880F911D9695879597F90895D6
:1013A000E1E0660F771F881FBB1F62177307840772
:1013B000BA0720F0621B730B840BBA0BEE1F88F781
:1013C000E09508950E94E9096894B1110C94C40A4B
:1013D00008950E94A90A88F09F5798F0B92F99277D
:1013E000B751B0F0E1F0660F771F881F991F1AF010
:1013F000BA95C9F714C0B13091F00E94C30AB1E0A8
:1014000008950C94C30A672F782F8827B85F39F0A6
:10141000B93FCCF3869577956795B395D9F73EF4A8
:1014200090958095709561957F4F8F4F9F4F089550
:10143000E89409C097FB3EF490958095709561956E
:101440007F4F8F4F9F4F9923A9F0F92F96E9BB2724
:101450009395F695879577956795B795F111F8CFA0
:10146000FAF4BB0F11F460FF1BC06F5F7F4F8F4F0B
:101470009F4F16C0882311F096E911C0772321F001
:101480009EE8872F762F05C0662371F096E8862F99
:1014900070E060E02AF09A95660F771F881FDAF7F0
:1014A000880F9695879597F90895990F0008550F1D
:1014B000AA0BE0E8FEEF16161706E807F907C0F0DA
:1014C00012161306E407F50798F0621B730B840BE2
:1014D000950B39F40A2661F0232B242B252B21F4BC
:1014E00008950A2609F4A140A6958FEF811D811D5C
:1014F000089597F99F6780E870E060E008959FEF96
:1015000080EC089500240A9416161706180609069A
:10151000089500240A941216130614060506089569
:10152000092E0394000C11F4882352F0BB0F40F4F1
:10153000BF2B11F460FF04C06F5F7F4F8F4F9F4F31
:10154000089557FD9058440F551F59F05F3F71F0B3
:101550004795880F97FB991F61F09F3F79F087951A
:101560000895121613061406551FF2CF4695F1DFA3
:1015700008C0161617061806991FF1CF8695710533
:10158000610508940895E894BB2766277727CB0167
:1015900097F908950E94550A08F48FEF0895CF93A4
:1015A000DF938230910510F482E090E0E091230215
:1015B000F091240220E030E0C0E0D0E0309711F15B
:1015C0004081518148175907C0F04817590761F405
:1015D00082819381209719F09B838A832BC09093FB
:1015E00024028093230226C02115310519F04217E9
:1015F000530718F49A01BE01DF01EF010280F38165
:10160000E02DDCCF2115310509F1281B390B2430E1
:10161000310590F412968D919C9113976115710587
:1016200021F0FB019383828304C090932402809372
:101630002302FD01329644C0FD01E20FF31F8193A6
:101640009193225031092D933C933AC0209121026D
:1016500030912202232B41F42091020130910301A9
:101660003093220220932102209100013091010148
:101670002115310541F42DB73EB740910401509139
:101680000501241B350BE0912102F0912202E217A3
:10169000F307A0F42E1B3F0B2817390778F0AC0195
:1016A0004E5F5F4F2417350748F04E0F5F1F509372
:1016B0002202409321028193919302C0E0E0F0E086
:1016C000CF01DF91CF9108950F931F93CF93DF93B5
:1016D000009709F48CC0FC013297138212820091AA
:1016E0002302109124020115110581F4208131811A
:1016F000820F931F2091210230912202281739076F
:1017000079F5F0932202E093210271C0D80140E004
:1017100050E0AE17BF0750F412962D913C911397ED
:10172000AD012115310509F1D901F3CF9D01DA0190
:101730003383228360817181860F971F82179307FD
:1017400069F4EC0128813981260F371F2E5F3F4F46
:10175000318320838A819B8193838283452B29F463
:10176000F0932402E093230242C01396FC93EE937D
:101770001297ED01499159919E01240F351FE217EF
:10178000F30771F480819181840F951F0296119661
:101790009C938E938281938113969C938E93129740
:1017A000E0E0F0E0D80112968D919C91139700979C
:1017B00019F0F8018C01F6CF8D919C9198012E5F64
:1017C0003F4F820F931F2091210230912202281750
:1017D000390769F4309729F41092240210922302F9
:1017E00002C0138212821093220200932102DF9121
:1017F000CF911F910F910895DC0101C06D9341506D
:101800005040E0F7089510E0CEE5D0E004C0FE01BE
:101810000E9465092196CF35D107C9F7F894FFCF0B
:1018200000002502200000000000A603DF043703AB
:101830005103430386030D0A006E616E00696E66F4
:08184000006F7666002E000027
:00000001FF
